:100000000C94AE050C94D6050C94D6050C94D6052C
:100010000C94D6050C94D6050C94D6050C94D605F4
:100020000C94D6050C94D6050C94D6050C94D605E4
:100030000C94D6050C94D6050C94D6050C94D605D4
:100040000C9442190C94D6050C94B2190C948C198A
:100050000C94D6050C94D6050C94D6050C94D605B4
:100060000C9423180C94D60500000000003E5B4F52
:100070005B3E3E6B4F6B3E1C3E7C3E1C183C7E3C08
:10008000181C577D571C1C5E7F5E1C00183C180016
:10009000FFE7C3E7FF0018241800FFE7DBE7FF30A6
:1000A000483A060E2629792926407F050507407F14
:1000B00005253F5A3CE73C5A7F3E1C1C08081C1C87
:1000C0003E7F14227F22145F5F005F5F06097F017D
:1000D0007F006689956A606060606094A2FFA29468
:1000E00008047E040810207E201008082A1C080836
:1000F0001C2A08081E101010100C1E0C1E0C303884
:100100003E3830060E3E0E06000000000000005F84
:1001100000000007000700147F147F14242A7F2AA0
:100120001223130864623649562050000807030062
:10013000001C2241000041221C002A1C7F1C2A08AE
:10014000083E080800807030000808080808000011
:1001500060600020100804023E5149453E00427F85
:10016000400072494949462141494D331814127FD4
:100170001027454545393C4A494931412111090774
:100180003649494936464949291E000014000000F5
:1001900040340000000814224114141414140041C7
:1001A00022140802015909063E415D594E7C121184
:1001B000127C7F494949363E414141227F414141BC
:1001C0003E7F494949417F090909013E4141517337
:1001D0007F0808087F00417F41002040413F017FA8
:1001E000081422417F404040407F021C027F7F0470
:1001F00008107F3E4141413E7F090909063E4151B9
:10020000215E7F09192946264949493203017F01A8
:10021000033F4040403F1F2040201F3F4038403FA9
:10022000631408146303047804036159494D4300BF
:100230007F4141410204081020004141417F0402F6
:10024000010204404040404000030708002054548D
:1002500078407F284444383844444428384444286B
:100260007F385454541800087E090218A4A49C78BE
:100270007F0804047800447D40002040403D007F1A
:100280001028440000417F40007C047804787C08FA
:100290000404783844444438FC18242418182424CE
:1002A00018FC7C08040408485454542404043F44B3
:1002B000243C4040207C1C2040201C3C4030403CE2
:1002C00044281028444C9090907C4464544C440042
:1002D00008364100000077000000413608000201A6
:1002E0000204023C2623263C1EA1A161123A404092
:1002F000207A38545455592155557941225454780F
:1003000042215554784020545579400C1E527212A7
:100310003955555559395454545939555454580030
:1003200000457C410002457D420001457C407D1234
:1003300011127DF0282528F07C5455450020545496
:100340007C547C0A097F4932494949323A44444441
:100350003A324A4848303A4141217A3A424020787C
:10036000009DA0A07D3D4242423D3D4040403D3C7D
:1003700024FF2424487E4943662B2FFC2F2BFF09A2
:1003800029F620C0887E0903205454794100004496
:100390007D413048484A32384040227A007A0A0A81
:1003A000727D0D19317D2629292F282629292926F4
:1003B00030484D4020380808080808080808382F39
:1003C00010C8ACBA2F102834FA00007B00000814C3
:1003D0002A142222142A14085500550055AA55AA99
:1003E00055AAFF55FF55FF000000FF00101010FF39
:1003F00000141414FF001010FF00FF1010F010F094
:10040000141414FC001414F700FF0000FF00FF1484
:1004100014F404FC141417101F10101F101F1414D0
:10042000141F00101010F0000000001F101010101A
:100430001F10101010F010000000FF10101010100E
:1004400010101010FF10000000FF140000FF00FF4C
:1004500000001F10170000FC04F4141417101714E8
:1004600014F404F40000FF00F7141414141414140A
:10047000F700F7141414171410101F101F1414147D
:10048000F4141010F010F000001F101F0000001FE7
:1004900014000000FC140000F010F01010FF10FF1A
:1004A000141414FF141010101F00000000F010FFAF
:1004B000FFFFFFFFF0F0F0F0F0FFFFFF0000000093
:1004C00000FFFF0F0F0F0F0F3844443844FC4A4A17
:1004D0004A347E02020606027E027E0263554941CC
:1004E000633844443C04407E201E2006027E020203
:1004F00099A5E7A5991C2A492A1C4C7201724C3017
:100500004A4D4D303048784830BC625A463D3E49ED
:100510004949007E0101017E2A2A2A2A2A44445F91
:10052000444440514A444040444A51400000FF0185
:1005300003E080FF000008086B6B08361236243693
:10054000060F090F060000181800000010100030F8
:1005500040FF0101001F01011E00191D1712003C80
:100560003C3C3C0000000000000103070F1F3F7FE0
:100570000080C0E0F0F8FCFEDB40A4A62EAF200017
:10058000A1C8D300408DAED580A800006000000057
:100590000000000000000000000000E0000000007B
:1005A00000000000000000000001E000000000006A
:1005B000000000000000000001F00000000000004A
:1005C0000000000000000003F00000000000000038
:1005D00000000000000007F0000000000000000024
:1005E000000000000007F80000000000000000000C
:1005F000000000000FF800000003C0007E000001B2
:10060000E0007F0FF800000003C000FE000001E0E2
:1006100000FFEFF800000003C000FE000001E00052
:10062000FFFFF800000003C000F00000000F007F93
:10063000FE7FC0000003C000F00000000F003FFE7E
:100640007FF83FF1FBCFFCFEF3BC3DEFE01FFE7FE8
:10065000FF7FFBFFDFFEFEFFBC3DEFE01FC6FFFF9D
:100660007FFBFFDFFEFEFFBC3DEFE00FE3C7FE7840
:100670007BC3DE1EF0FFBC3DEF0007FF87FC787BED
:10068000C3DE1EF0F83C3DEF0001FFFFF0007BC32E
:10069000C01EF0F03C3DEF0001F37FE03FFBC3CF15
:1006A000FEF0F03C3DEF0003E33F807FFBC3DFFE45
:1006B000F0F03C3DEF0007E73C00787BC3DE1EF026
:1006C000F03C3DEF0007FFBE00787BC3DE1EF0F07C
:1006D0003C3DEF0007FFFE00787BC3DE1EF0F03CE0
:1006E0003DEF000FFFFE007FFBFFDFFEF0F03FFD60
:1006F000EFE00FFFFF007FFBFFDFFEF0F03FFDEFBD
:10070000E00FF9FF003E79F9CF9EF0F01F3DE7E0E2
:100710001FF1FF0000000000000000000000001FAB
:1007200080FF007FFFFFFFFFFFFFFFFFFFE01C00D8
:100730007F007FFFFFFFFEB46D888D18E000001F73
:10074000007FFFFFFFFE95AD7DB577E000000F0055
:100750007FFFFFFFFEA5AD9D8D19E0000006007F25
:10076000FFFFFFFEB5ADEDB57EE00000000000012B
:100770008000000000000000000003800000000076
:10078000000000000007C0000000000000000000A2
:1007900007C00000000000000000000FC0000000C3
:1007A0000000000000001FE000000000000000004A
:1007B000001FE00000000000000000003FE000001B
:1007C000000000000000003FF000000000000000FA
:1007D00000007FF0000000000000001FF87FF00024
:1007E0000000000000003FFE7FF00000000000005D
:1007F000003FFF7FF0000000000000001FFFFBE053
:10080000000000000000000FFFF9FFC00000000022
:1008100000000FFFF9FFF800000000000007FFF1E3
:10082000FFFF00000000000003FC73FFFF800000DA
:1008300000000001FE3FFFFF80000000000000FFFD
:100840001E0FFF000000000000007FFE1FFC0000E4
:1008500000000000003FFFFFF80000000000000063
:100860000FDFFFE0000000000000001F19FFC000C4
:100870000000000000003F3CFF00000000000000FE
:10088000007E7CF800000000000000007FFE7C007D
:1008900000000000000000FFFFFC0000000000005E
:1008A0000000FFFFFE0000000000000000FFFFFE50
:1008B0000000000000000001FFEFFE00000000004B
:1008C000000001FFCFFE0000000000000003FF0752
:1008D000FE0000000000000003FC07FE0000000016
:1008E00000000003F003FE00000000000000018093
:1008F00000FE000000000000000000007E0000007C
:10090000000000000000003E0000000000000000A9
:1009100000000C000000000000078000FC00000345
:10092000C0000000078001FC000003C000000007B9
:100930008001FC000003C0000000078001E000000F
:10094000001E000000078001E00000001E007FE3A1
:10095000F79FF9FDE7787BDFC0FFF7FFBFFDFDFFE5
:10096000787BDFC0FFF7FFBFFDFDFF787BDFC0F0C6
:10097000F787BC3DE1FF787BDE00F0F787BC3DE107
:10098000F0787BDE0000F787803DE1E0787BDE00D9
:100990007FF7879FFDE1E0787BDE00FFF787BFFDF3
:1009A000E1E0787BDE00F0F787BC3DE1E0787BDEBC
:1009B00000F0F787BC3DE1E0787BDE00F0F787BC14
:1009C0003DE1E0787BDE00FFF7FFBFFDE1E07FFB6C
:1009D000DFC0FFF7FFBFFDE1E07FFBDFC07CF3F38B
:1009E0009F3DE1E03E7BCFC0000000000000000022
:1009F000000000FFFFFFFFFFFFFFFFFFFFC0FFFF43
:100A0000FFFFFD68DB111A31C0FFFFFFFFFD2B5A0E
:100A1000FB6AEFC0FFFFFFFFFD4B5B3B1A33C0FFDC
:100A2000FFFFFFFD6B5BDB6AFDC053534431333086
:100A30003620616C6C6F636174696F6E20666169EA
:100A40006C65640074656D7020636F6E74726F6C9A
:100A5000006D6F64656C3A0066616E20636F6E7442
:100A6000726F6C006D6F64656C3A002025006E6FCC
:100A7000772066616E2073706565643A006E6F77EB
:100A80002074656D70657261747572653A00250039
:100A90007365742066616E2073706565643A006EDC
:100AA0006F772066616E2063757272656E743A00AE
:100AB000204320202000202F200054656D703A2014
:100AC00000207320202000202F200054696D653AFB
:100AD00000204320202000453A00204320007320BE
:100AE00000452E542F4D2E453A00732000200065FE
:100AF000436E742F552E543A000000000024002746
:100B0000002A0000000000250028002B0000000043
:100B100008000201000003040700000000000000BC
:100B2000002200FF21000000000023002600290011
:100B30000404040404040404020202020202030383
:100B4000030303030102040810204080010204088B
:100B50001020010204081020E419092711241FBEE7
:100B6000CFEFD8E0DEBFCDBF11E0A0E0B1E0E2E81A
:100B7000F5E502C005900D92AC35B107D9F724E038
:100B8000ACE5B1E001C01D92A236B207E1F715E075
:100B9000CDEAD5E004C02197FE010E943A27CC3A65
:100BA000D107C9F70E94AA1A0C94B42A0C94000029
:100BB00080911004E0911104F0911204F894918155
:100BC000982B91832281382F309523232283A7E00D
:100BD000B0E01197F1F7918193239183A3E2B0E004
:100BE0001197F1F790817894EFECF0E03197F1F7FD
:100BF000982381E009F480E0089590911004E09139
:100C00001104F0911204292F209580FF14C0F8944C
:100C10008281822382838181892B8183A3E2B0E058
:100C20001197F1F78281982B9283789487ED90E069
:100C30000197F1F70895F89482818223828381815C
:100C4000892B8183AFEFB0E01197F1F78281982B68
:100C5000928378948FE090E0EBCFFF920F931F93F5
:100C6000CF93DF93F82E062FC8E0D0E011E081E0AB
:100C70009F2D912309F480E00E94FD05110F21971B
:100C8000B1F7011113C0F894E0911104F09112042E
:100C9000918180911004809598239183E0911104B3
:100CA000F09112049281892382837894DF91CF910D
:100CB0001F910F91FF900895CF93DF9360E085E53A
:100CC0000E942D06CBE5D3E060E089910E942D06BD
:100CD00083E0C336D807C1F7DF91CF9108958091A3
:100CE0001004E0911104F0911204F8949181282FDE
:100CF00020959223918378943DE743E050E0315072
:100D000029F1DA011197F1F790819823C1F3F89452
:100D10009281922392839181982B91837894ABE76F
:100D2000B7E01197F1F7F894918192239183A3E1B1
:100D3000B1E01197F1F79081982381E009F080E00C
:100D40007894E3E6F6E03197F1F7089580E00895AE
:100D5000089520910F03260F3327331F21323105C9
:100D6000ECF420913503FC0190E080E0243069F040
:100D700082E00895A0910F032191AC0143515D4F92
:100D8000A40FB52FB11D2C930196861798F380916F
:100D90000F03680F60930F0380E0089581E00895CA
:100DA00008950895E091E6028091E502E81730F495
:100DB000F0E0EB53FD4F808190E008958FEF9FEFBF
:100DC00008959091E6028091E5022FEF3FEF98178A
:100DD00048F4E92FF0E0EB53FD4F208130E09F5FB6
:100DE0009093E602C90108958091E5029091E60290
:100DF000891B990B0895CF92DF92EF92FF920F9388
:100E00001F93CF93DF937C01CB018A01209166036E
:100E1000222389F0EB016B01C40ED51ECC15DD0534
:100E200069F06991D701ED91FC910190F081E02D7D
:100E3000C7010995F3CF642F0E94A906C801DF916D
:100E4000CF911F910F91FF90EF90DF90CF90089579
:100E5000CF93DF931F92CDB7DEB7698320916603EE
:100E60002223F9F020916303203258F021E030E092
:100E7000FC013383228390E080E00F90DF91CF91DB
:100E8000089580916403E82FF0E0EB55FD4F9981C0
:100E900090838F5F809364038093630381E090E08D
:100EA000ECCF61E0CE0101960E94A906F7CF833016
:100EB00081F028F4813099F08230A9F008958730CC
:100EC000A9F08830C9F08430B1F4809180008F7D22
:100ED00003C0809180008F7780938000089584B54F
:100EE0008F7784BD089584B58F7DFBCF8091B0004E
:100EF0008F778093B00008958091B0008F7DF9CFF7
:100F0000CF93DF93282F30E0F901E35FF44F849112
:100F1000F901EC5BF44FD491F901E05DF44FC49119
:100F2000CC23A1F081110E945707EC2FF0E0EE0FC7
:100F3000FF1FEA5DF44FA591B491EC91ED2381E0A0
:100F400090E009F480E0DF91CF91089580E090E097
:100F5000FACF1F93CF93DF93282F30E0F901E35F9F
:100F6000F44F8491F901EC5BF44FD491F901E05D09
:100F7000F44FC491CC23A9F0162F81110E9457077A
:100F8000EC2FF0E0EE0FFF1FED5FF44FA591B49151
:100F90008FB7F894EC91111108C0D095DE23DC9343
:100FA0008FBFDF91CF911F910895DE2BF8CF109264
:100FB000350381E0809337031092360361E082E1CC
:100FC0000E94A90761E083E10E94A907E9EBF0E034
:100FD00080818E7F808380818D7F808388E4809371
:100FE000B80085E48093BC000895CF93DF9391E02F
:100FF0009093EC028823B9F0C091B800D091BA0068
:101000008091BC008A7B8093BC0060E082E10E94FA
:10101000A90760E083E10E94A9070E94D707D09347
:10102000BA00C093B800DF91CF910895CF93DF93BA
:1010300090E0FC01EC5BF44F2491805D944FFC0147
:1010400084918823C9F090E0880F991FFC01E75034
:10105000F54FA591B491FC01ED5FF44FC591D4918A
:1010600061110DC09FB7F8948C91209582238C93C9
:101070008881282328839FBFDF91CF910895623014
:1010800051F49FB7F8943C91822F809583238C93E1
:10109000E8812E2BEFCF8FB7F894EC912E2B2C9369
:1010A0008FBFEACF1F93CF93DF93182FEB0161E03F
:1010B0000E941608209739F460E0812FDF91CF91CC
:1010C0001F910C94A907CF3FD10511F461E0F5CF32
:1010D000E12FF0E0E35FF44FE491E33031F140F4CD
:1010E000E130B1F0E230E1F0C038D1057CF7E4CF77
:1010F000E73029F1E83059F1E430B1F78091800010
:10110000806280938000D0938B00C0938A0004C0DB
:1011100084B5806884BDC7BDDF91CF911F910895CC
:1011200084B5806284BDC8BDF7CF8091800080689F
:1011300080938000D0938900C0938800EDCF809188
:10114000B00080688093B000C093B300E5CF809179
:10115000B00080628093B000C093B400DDCF3FB791
:10116000F8948091A1029091A202A091A302B09163
:10117000A40226B5A89B05C02F3F19F00196A11D1A
:10118000B11D3FBFBA2FA92F982F8827BC01CD01D1
:10119000620F711D811D911D42E0660F771F881F30
:1011A000991F4A95D1F70895CF92DF92EF92FF925F
:1011B0000F931F93CF93DF93D091630381E0D132DC
:1011C00008F09CC0C09165030E94AF086B017C01D0
:1011D0008091350381116CC082E08093350381E0FA
:1011E000809337038FEF8093340310925903D09389
:1011F0005803A5EAB2E0E8E3F3E080E0D8138DC03D
:1012000010925A0380915A03CC0FC82BC0935A03F3
:1012100080913603813009F084C0109236030E9419
:10122000AF086B017C0180915A038093BB008091D1
:10123000E8029091E902A091EA02B091EB02892BB9
:101240008A2B8B2BA1F00E94AF080091E80210912D
:10125000E9022091EA023091EB026C197D098E09B6
:101260009F09061717072807390708F442C080911D
:10127000BC0083FDD8CF85EC8093BC000E94AF08F2
:101280006B017C0180913503823009F44CC0809160
:1012900034038F3F09F469C080913403803209F42C
:1012A00066C080913403803309F463C084E026C0B3
:1012B0008091E8029091E902A091EA02B091EB02DC
:1012C000892B8A2B8B2B09F483CF0E94AF080091C6
:1012D000E8021091E9022091EA023091EB026C19C8
:1012E0007D098E099F09061717072807390708F097
:1012F0006FCF8091E7020E94F50785E010926403AA
:101300001092630310926603DF91CF911F910F91AA
:10131000FF90EF90DF90CF9008959D9191938F5F14
:101320006DCF85EEA9CF8091E8029091E902A0915E
:10133000EA02B091EB02892B8A2B8B2B09F4A2CF06
:101340000E94AF080091E8021091E9022091EA02A0
:101350003091EB026C197D098E099F09061717075A
:101360002807390708F08ECFC4CF80E0C7CF82E0CE
:10137000C5CF83E0C3CF8F929F92AF92BF92CF929F
:10138000DF92EF92FF924B015C010E94AF086B016C
:101390007C010E94AF086C197D098E099F09683E87
:1013A000734081059105A8F321E0821A9108A108F4
:1013B000B10888EEC80E83E0D81EE11CF11C811430
:1013C0009104A104B10429F7FF90EF90DF90CF9032
:1013D000BF90AF909F908F9008952FB7F894609131
:1013E0009D0270919E0280919F029091A0022FBF5A
:1013F0000895EF92FF920F931F93CF93DF938C0189
:101400007B01D0E0C0E0F701EC0FFD1F6491662383
:1014100061F0D801ED91FC910190F081E02DC801BF
:101420000995892B11F02196EECFCE01DF91CF9156
:101430001F910F91FF90EF900895AF92BF92CF92BE
:10144000DF92EF92FF920F931F93CF93DF936C0184
:101450007B018B01040F151FEB015E01AE18BF0865
:10146000C017D10759F06991D601ED91FC91019017
:10147000F081E02DC6010995892B79F7C501DF912F
:10148000CF911F910F91FF90EF90DF90CF90BF9081
:10149000AF900895FC01538D448D252F30E0842FAB
:1014A00090E0821B930B541710F0CF96089501978C
:1014B0000895FC01918D828D981761F0A28DAE0F79
:1014C000BF2FB11D5D968C91928D9F5F9F73928F00
:1014D00090E008958FEF9FEF0895FC01918D828D2C
:1014E000981731F0828DE80FF11D858D90E00895F9
:1014F0008FEF9FEF0895FC01918D228D892F90E051
:10150000805C9F4F821B91098F739927089587E60E
:1015100093E00E947B0A21E0892B09F420E0822FCE
:10152000089580E090E0892B29F00E94870A8111BC
:101530000C9400000895FC01A48DA80FB92FB11DD3
:10154000A35ABF4F2C91848D90E001968F739927F9
:10155000848FA689B7892C93A089B1898C918370D7
:1015600080648C93938D848D981306C00288F389D0
:10157000E02D80818F7D80830895EF92FF920F93FD
:101580001F93CF93DF93EC0181E0888F9B8D8C8D2F
:1015900098131AC0E889F989808185FF15C09FB723
:1015A000F894EE89FF896083E889F98980818370E6
:1015B000806480839FBF81E090E0DF91CF911F9195
:1015C0000F91FF90EF900895F62E0B8D10E00F5FB6
:1015D0001F4F0F731127E02E8C8D8E110CC00FB68C
:1015E00007FCFACFE889F989808185FFF5CFCE0124
:1015F0000E949B0AF1CFEB8DEC0FFD2FF11DE35AFA
:10160000FF4FF0829FB7F8940B8FEA89FB898081A6
:101610008062CFCFCF93DF93EC01888D8823B9F020
:10162000AA89BB89E889F9898C9185FD03C08081ED
:1016300086FD0DC00FB607FCF7CF8C9185FFF2CF6A
:10164000808185FFEDCFCE010E949B0AE9CFDF911B
:10165000CF910895EF92FF920F931F93CF93DF9353
:10166000EC01EC80FD806E157F050CF070C057FF1B
:1016700004C0240F351F50E040E08E819F81FA01A5
:10168000E20FF31F8E179F071CF49C01241B350BE0
:10169000121613060CF05BC0922F842F8695869548
:1016A00086958E9DD0018F9DB00D11246A0F7B1FF2
:1016B000AF8DB8A1A60FB71F477049F188E0841B12
:1016C000482F682F70E0FB01E059FA4FE49128178A
:1016D00008F063C0621B71092FEF30E002C035953E
:1016E00027956A95E2F7E2230130110539F0B0F150
:1016F0000230110561F58C91E82702C08C91E82B2E
:10170000EC93941720F12C813D81A20FB31FE92F98
:10171000E41BE83078F00230110521F58E2F9C9102
:1017200090959C932C813D81A20FB31F88508830E7
:10173000B0F7E770EE2359F0F0E0E859FA4FE49182
:1017400001301105F9F010F10230110519F1DF91A6
:10175000CF911F910F91FF90EF900895E0958C919C
:10176000E823CECF81E00115110509F480E08195D1
:101770009E2F8C932C813D81A20FB31F98509830DF
:10178000C0F7D7CF8C91E82BEC93E1CFE0958C910B
:10179000E823FACF8C91E827F7CF0130110509F43F
:1017A000ADCFE0F20230110509F4A5CFAE0DBF1D9B
:1017B000AECF0F931F93CF93DF9377FF04C0260F15
:1017C000371F70E060E0DC011496CD91DC91FB01E5
:1017D000E20FF31FCE17DF071CF49E01261B370B09
:1017E000121613064CF5FA0157FD3796A3E0F5954E
:1017F000E795AA95E1F7EC9FD001ED9FB00DFC9F16
:10180000B00D11246A0F7B1FDC015F96ED91FC91F6
:10181000E60FF71F4770552781E090E001C0880F61
:101820004A95EAF7482F0130110559F0A8F02E0F1C
:101830003F1F02301105E1F0DF91CF911F910F9111
:1018400008952E0F3F1FE217F307B1F38191DF01D7
:101850001197842B8C93F7CF80952E0F3F1FE217A3
:10186000F30751F39191DF01119798239C93F7CFE0
:10187000E217F30709F38191DF01119784278C9315
:10188000F7CF0F931F93FA01DC0156964C915697B0
:101890004230E9F04330A1F1413061F514964D91A9
:1018A0005C91DA01AE1BBF0BFD01E21BF30B77FD70
:1018B0000BC0DC0116964D915C916417750724F4FA
:1018C000AB01BF010E94D90B1F910F91089514968F
:1018D0004D915C91DA01A61BB70BBD0161507109F6
:1018E000DC0116964D915C91DA01AE1BBF0BFD0138
:1018F000E21BF30B77FDE8CFAF010E942A0BE4CF88
:1019000016964D915C91DA01A61BB70BBD01615093
:101910007109CDCF0F931F93FA01DC0156964C91BC
:1019200056974230A9F0433091F1413019F51496A1
:101930004D915C91DA01AE1BBF0BFD013197F7FDB4
:1019400004C0AB01BF010E942A0B1F910F910895A3
:1019500014964D915C91DA01A61BB70BBD01DC0119
:1019600016964D915C91DA01AE1BBF0BFD013197CC
:10197000621B730BF7FDE9CFDC0116964D915C916C
:10198000E417F50714F7AF010E94D90BDECF1696C6
:101990004D915C91DA01A61BB70BBD01621B730B65
:1019A000CECFFC0177FD64C08085918568177907EB
:1019B0000CF05EC057FD5CC08285938548175907BF
:1019C0000CF056C086898230B1F0833029F1813025
:1019D00041F484819581841B950BAB01BC0161505E
:1019E00071092130310509F108F443C02230310575
:1019F00009F463C0089584819581DC01A61BB70BAF
:101A0000BD016150710986819781DC01A41BB50B72
:101A1000AD0141505109E5CF86819781861B970B17
:101A2000BA01AC0141505109DCCFCA0157FD0796FC
:101A3000A3E095958795AA95E1F7A481B5818A9F42
:101A400090018B9F300D9A9F300D1124620F731FF0
:101A5000078CF0A1E02DE60FF71F4770552721E016
:101A600030E001C0220F4A95EAF78081822B808303
:101A70000895CA0157FD079633E0959587953A95E5
:101A8000E1F7A481B5818A9F90018B9F300D9A9FC9
:101A9000300D1124620F731F078CF0A1E02DE60FAB
:101AA000F71F4770552781E090E001C0880F4A95E5
:101AB000EAF7809590818923DACFCA0157FD07960E
:101AC00023E0959587952A95E1F7A481B5818A9FB2
:101AD00090018B9F300D9A9F300D1124620F731F60
:101AE000078CF0A1E02DE60FF71F4770552721E086
:101AF00030E001C0220F4A95EAF780818227B7CFF4
:101B000008958EBD00000DB407FEFDCF8EB508957B
:101B1000EF92FF920F931F93CF93DF937C01C62F19
:101B200080913B0490913C04009709F459C02091A6
:101B30003F0431E030936603209365031092640301
:101B400010926303DC01ED91FC910190F081E02D96
:101B500060E009958701EE24E394F12CD1E0C150B7
:101B600080913B0490913C04CF3F91F1B0E2EB16A1
:101B7000F104D8F00E94D40880913B0490913C0479
:101B800020913F04D0936603209365031092640371
:101B900010926303DC01ED91FC910190F081E02D46
:101BA00060E00995EE24E394F12C80913B04909140
:101BB0003C04F8016491DC01ED91FC910190F0810D
:101BC000E02D0995BFEFEB1AFB0A0F5F1F4FC7CF40
:101BD000DF91CF911F910F91FF90EF900C94D4085B
:101BE000E0914B04F0914C049081809151048095D8
:101BF000892380838701C15008F438C0F80184919B
:101C00002091390430913A04232B29F00E94810D50
:101C10000F5F1F4FF0CF28E030E040E8E09147042D
:101C2000F091480490914F04582F5423D9F05081DB
:101C3000952B9083E0914904F0914A049081509152
:101C40005004952B9083E0914904F0914A0450810F
:101C50009091500490959523908346952150310999
:101C6000E9F6D6CF508190959523E3CFDF91CF91C0
:101C70001F910F91FF90EF9008951F93CF93DF93E3
:101C8000EC018D8D9E8D009721F1162F29A131E059
:101C900030936603209365031092640310926303EC
:101CA000DC01ED91FC910190F081E02D60E009955F
:101CB0008D8D9E8DDC01ED91FC910190F081E02DE8
:101CC000612F09958D8D9E8DDF91CF911F910C9481
:101CD000D408ADA5BEA59C918BA9809589238C9332
:101CE0008B8D9C8D892B31F0862FDF91CF911F91A9
:101CF0000C94810D28E030E080E8A9A5BAA599A947
:101D0000462F4823C1F04C91942B9C93ABA5BCA5C6
:101D10009C914AA9942B9C93ABA5BCA54C919AA9E4
:101D2000909594239C9386952150310931F7DF914A
:101D3000CF911F9108954C9190959423E6CF8CBD3F
:101D40009DBD0895DF92EF92FF920F931F93CF9363
:101D5000DF9380913B0490913C04892B09F498C057
:101D600020915304309154044091550450915604ED
:101D700060E074E284EF90E00E941827205131095E
:101D80004109510956954795379527952093B800F5
:101D900065E081E29BE00E94880D60912204615021
:101DA0008EE194E00E943D0E2091240430912504A0
:101DB000C901079697FD079633E0959587953A9563
:101DC000E1F72091220430912304829F8001839FB8
:101DD000100D929F100D1124C0913D04D0913E042E
:101DE00080913B0490913C040C0F1D1F009709F457
:101DF0008FC020913F0431E0309366032093650348
:101E00001092640310926303DC01ED91FC91019048
:101E1000F081E02D60E40995EE24E394F12CDD24BB
:101E2000D39480913B0490913C040C171D0709F456
:101E300046C0B0E2EB16F104D8F00E94D4088091BD
:101E40003B0490913C0420913F04D0926603209380
:101E500065031092640310926303DC01ED91FC9121
:101E60000190F081E02D60E40995EE24E394F12CDB
:101E700080913B0490913C046991DC01ED91FC91CF
:101E80000190F081E02D0995BFEFEB1AFB0AC9CF55
:101E90008091390490913A04892B31F080915C044F
:101EA00090915D040E949F0EE0914D04F0914E04CC
:101EB00090818091520480958923808369CF0E940C
:101EC000D40880913B0490913C04892B09F461C0B3
:101ED00020915704309158044091590450915A046C
:101EE00060E074E284EF90E00E94182720513109ED
:101EF0004109510956954795379527952093B80084
:101F0000DF91CF911F910F91FF90EF90DF90089597
:101F1000E0914B04F0914C04808190915104892B05
:101F200080830C171D0769F2899120913904309143
:101F30003A04232B19F00E94810DF3CF28E030E002
:101F400040E8E0914704F091480490914F04582FE5
:101F50005423D9F05081952B9083E0914904F0915E
:101F60004A04908150915004952B9083E09149044C
:101F7000F0914A045081909150049095952390835C
:101F8000469521503109E9F6CCCF508190959523A3
:101F9000E3CFE0914D04F0914E0480819091520482
:101FA000892B8083ADCF1F93CF93DF93EC01162F46
:101FB0008D8D9E8D892BB1F12DA93EA94FA958ADCC
:101FC00060E074E284EF90E00E941827205131090C
:101FD0004109510956954795379527952093B800A3
:101FE00066EA111167EACE010E943D0E8D8D9E8D2D
:101FF000892B41F129AD3AAD4BAD5CAD60E074E2A7
:1020000084EF90E00E9418272051310941095109BD
:1020100056954795379527952093B800DF91CF9136
:102020001F9108958B8D9C8D892B21F08EAD9FADD6
:102030000E949F0EEFA5F8A990818CA98095892315
:102040008083CECFEFA5F8A980819CA9892B8083BE
:10205000E5CF0895FC016370668B848195812681AC
:102060003781613039F0633029F091878087338779
:1020700022870895318720879387828708952F923A
:102080003F924F925F926F927F928F929F92AF9208
:10209000BF92CF92DF92EF92FF920F931F93CF9355
:1020A000DF93CDB7DEB76A970FB6F894DEBF0FBEE9
:1020B000CDBF9A8F898F7A8369834A01D22E188780
:1020C0000F833701BC2CDC0159962D913C915A9716
:1020D0002115310509F015C118968D919C9119971C
:1020E000681779070CF0D7C11A968D919C91481703
:1020F00059070CF0D0C14C2C512CB6E0CB9E600D92
:10210000711D11247C876B87161617060CF0C3C14E
:10211000EA2DF0E0FA87E98793E0EE0FFF1F9A952A
:10212000E1F7F88BEF87CF01840F951F181619067A
:102130000CF0B1C1A98DBA8D58968C91811104C053
:10214000BFEABD1508F4D394A98DBA8DED91FC9129
:1021500011970284F385E02DCD010995B5E0DB9E52
:10216000C0011124E981FA81FC83EB83312C212CFD
:102170009C0128593F4F388F2F8B4A2D50E05E8BA2
:102180004D8BEF89F88DE20DF31D44919E828D8277
:10219000D12CC12C69817A81620D731D7A8B698B78
:1021A000842F90E09C8B8B8BE98DFA8DA081B1817F
:1021B00040FF82C0F1E0BF126FC0AF126DC01C962D
:1021C000ED91FC912F813885A4014C0D5D1D69892D
:1021D0007A89898D9A8D0995EB89FC89F595E79522
:1021E0004E2F5FEFC51AD50A6D817E818D899E893C
:1021F000680F791F7E836D8398E0C916D10481F63C
:10220000AFEF2A1A3A0AEB81FC81E40DF51DFC833D
:10221000EB83F5E02F16310409F0B3CF2F81388519
:1022200026153705B9F0A98DBA8DED91FC91B1E075
:10223000BB1257C0AB1255C069817A816B5F7F4F6B
:102240000088F189E02D830128E030E0A401898D28
:102250009A8D0995A98DBA8DED91FC9111970688FB
:10226000F789E02DCD016A960FB6F894DEBF0FBE58
:10227000CDBFDF91CF911F910F91FF90EF90DF9035
:10228000CF90BF90AF909F908F907F906F905F9016
:102290004F903F902F9009941E96ED91FC91EF8006
:1022A000F88409851A8592014D815E816B817C815C
:1022B000898D9A8D099590CF2F8138852615370500
:1022C00009F48ACF31E0B31207C0A31205C01C96EF
:1022D000ED91FC91930178CF1E96ED91FC917301E5
:1022E000E0CF6B857C85641975090684F785E02D40
:1022F00073010F8518899201A401898D9A8D099522
:10230000A9CFF90134969491329745915491D91AF5
:10231000B7E0DB9E400D511D1124F9012591349148
:102320003C8B2B8BFA0125903490FA0132967490F5
:1023300031963491398B329664903196449041E0D5
:102340004C1518F04A1508F07FC0662D062C000CBD
:10235000770B7C836B83842D042C000C990B9E835C
:102360008D83A98DBA8DED91FC9111970284F3852F
:10237000E02DCD010995512CD12CC12CEA2DF0E096
:10238000FA87E9872B2D30E03C872B87A401440D89
:10239000511D47FC5A95588F4F8B69817A81660D84
:1023A000711D67FC7A957E876D877989C71608F05D
:1023B00051CF2C2D30E04D815E81420F531FA985F6
:1023C000BA854A9FC0014B9F900D5A9F900D1124D2
:1023D000FC01E80DF91DF88BEF87852D612C4F89E5
:1023E000588D420F531F5E8B4D8B671408F050C001
:1023F00044244394480E877041F4C1010196EB894F
:10240000FC89E20DF31DD4901C01D7FE19C0A98DE3
:10241000BA8DED91FC91662D70E0B1E0BB1219C050
:10242000AB1217C02D853E85620F731F0484F5859E
:10243000E02D2F8138854D895E89898D9A8D09958A
:10244000DD0C6394842DD1CF1E821D821C821B82E1
:1024500088CF4B815C81640F751FAB85BC856A9FFB
:10246000C0016B9F900D7A9F900D112469817A8134
:10247000680F791F0684F785E02DEF80F8840985C1
:102480001A859D014F855889898D9A8D0995D8CFD8
:10249000570CC3948ACF6A960FB6F894DEBF0FBE6E
:1024A000CDBFDF91CF911F910F91FF90EF90DF9003
:1024B000CF90BF90AF909F908F907F906F905F90E4
:1024C0004F903F902F9008958F929F92AF92CF920E
:1024D000EF92FF920F931F93CF93DF93EC01262F80
:1024E000898D9A8D009709F051C06A30D1F41D860C
:1024F0001C868D8948E0849F900111248E859F85DC
:10250000820F931F9F878E8781E090E0DF91CF91AC
:102510001F910F91FF90EF90CF90AF909F908F9071
:1025200008956D3089F3CC88AD888F898823C1F0F8
:102530008C859D8536E0C39E800D911D11244885B4
:1025400059854817590764F44E855F851D861C869A
:1025500038E0A39EC0011124840F951F9F878E87AA
:10256000EA88FB88088919894E855F856C857D8599
:10257000CE010E943F102C898C859D8546E0249FCA
:10258000800D911D11249D878C87BECF6A3069F420
:102590001D861C86FC013896E4912D898E859F85C9
:1025A000E29F800D911D1124ADCF6D3009F4ACCFA9
:1025B000FC0134963491631708F4A6CF3296E49167
:1025C000E61708F4A1CFFC01329685909490462F2F
:1025D000431B342F47E0349F800C911C1124F401DD
:1025E000329634913196E4913323A9F1EE2399F197
:1025F000CC88F4013596E491AD884F89442301F1EC
:102600000E2E000CFF0BE30FF11DCE9EA001CF9EFE
:10261000500D11246C857D85460F571F688579857F
:10262000641775076CF44E855F851D861C86FC015A
:102630003896E491AE9E400D511D11245F874E8760
:10264000EA88FB88088919894E855F856C857D85B8
:10265000CE010E943F10F4013496E4912C898C85C0
:102660009D85E29F800D911D11248DCF6F927F92E9
:102670008F929F92AF92BF92CF92DF92EF92FF9292
:102680000F931F93CF93DF93EC016B015A01390134
:102690004801E881F9810284F385E02D0995E881FC
:1026A000F9810288F389E02D87019301A501B60124
:1026B000CE010995A501480D591D41505109E881E8
:1026C000F9810288F389E02D9301B601CE010995C5
:1026D000E881F9810088F189E02D9401A501B60116
:1026E000CE010995C60CD71CB60161507109E8816D
:1026F000F9810088F189E02D9401A501CE010995A9
:10270000E881F9810688F789E02DCE01DF91CF912C
:102710001F910F91FF90EF90DF90CF90BF90AF90FF
:102720009F908F907F906F9009946F927F928F927D
:102730009F92AF92BF92CF92DF92EF92FF920F9350
:102740001F93CF93DF935C01EB016A0149013801CC
:102750008701DC01ED91FC916217730719F564168E
:1027600075062CF0962D872D3A01C92ED82E96018C
:10277000261937092F5F3F4F048CF58DE02DA301FB
:10278000BE01C5010995DF91CF911F910F91FF9077
:10279000EF90DF90CF90BF90AF909F908F907F9001
:1027A0006F9008954615570591F42617370724F0C2
:1027B000892D4B01C22FD82F9E01281939092F5F6F
:1027C0003F4F068CF78DE02DA601B401DACF0284CD
:1027D000F385E02D0995D501ED91FC910488F589EB
:1027E000E02D83019401A601BE01C5010995D50123
:1027F000ED91FC910688F789E02DC501DF91CF911D
:102800001F910F91FF90EF90DF90CF90BF90AF900E
:102810009F908F907F906F900994EF92FF920F930B
:102820001F93DC011A960D911C911B9718962D9100
:102830003C911997ED91FC9100A0F1A1E02D7B0155
:1028400050E040E070E060E009951F910F91FF902B
:10285000EF9008954F925F926F927F928F929F9226
:10286000AF92BF92CF92DF92EF92FF920F931F939E
:10287000CF93DF936C012B015A0139014801DC0130
:10288000ED91FC910284F385E02D0995E201640C41
:10289000751CD601ED91FC91C615D7055CF4008836
:1028A000F189E02D87019401A501BE01C6010995BA
:1028B0002196EFCF0688F789E02DC601DF91CF91F1
:1028C0001F910F91FF90EF90DF90CF90BF90AF904E
:1028D0009F908F907F906F905F904F9009948F9210
:1028E0009F92AF92BF92CF92DF92EF92FF920F939F
:1028F0001F93CF93DF93EC015B014A016901E881EB
:10290000F9810284F385E02D099595012C0D3D1D7B
:1029100021503109E881F9810488F589E02D780199
:102920008401A401B501CE010995E881F9810688E9
:10293000F789E02DCE01DF91CF911F910F91FF908C
:10294000EF90DF90CF90BF90AF909F908F900994C1
:102950008F929F92AF92BF92CF92DF92EF92FF92AF
:102960000F931F93CF93DF93EC015B014A01690141
:102970007801E881F9810284F385E02D0995C80C7E
:10298000D91C860101501109E881F9810488F58973
:10299000E02D9501A401B501CE010995E881F981E9
:1029A0000688F789E02DCE01DF91CF911F910F911D
:1029B000FF90EF90DF90CF90BF90AF909F908F905F
:1029C0000994EF92FF920F931F93DC01ED91FC911C
:1029D00000A0F1A1E02D09951F910F91FF90EF90BC
:1029E00008950F931F93DC01ED91FC91068CF78DF8
:1029F000E02D09951F910F9108950F931F93DC010E
:102A0000ED91FC91048CF58DE02D09951F910F91AE
:102A10000895DC01ED91FC910084F185E02D09948D
:102A20003F924F925F926F927F928F929F92AF925E
:102A3000BF92CF92DF92EF92FF920F931F93CF93AB
:102A4000DF935C017B014A016901390187E0680E6F
:102A5000711C93E0759467949A95E1F72B01400EF1
:102A6000511E10E000E0312CD0E0C0E0CE018770B4
:102A70009927330C892B59F4FE0183E0F595E795EE
:102A80008A95E1F7E00FF11FE80DF91D349037FE4C
:102A90000AC021E030E0A701B5016C0F7D1F8EE177
:102AA00094E00E9409152196CC16DD06F9F68FEF09
:102AB000E81AF80A060D171DE414F504A9F6DF91CB
:102AC000CF911F910F91FF90EF90DF90CF90BF902B
:102AD000AF909F908F907F906F905F904F903F90BE
:102AE00008952F923F924F925F926F927F928F92B2
:102AF0009F92AF92BF92CF92DF92EF92FF920F938D
:102B00001F93CF93DF9300D000D000D0CDB7DEB7B6
:102B10003C016A013E832D83FC82EB825801A41A9A
:102B2000B50AB7FE03C0B194A194B1088D809E8010
:102B3000861A970A97FE03C09194819491088A148B
:102B40009B045CF0902F812F0D811E819D838E83CD
:102B50009C2D8D2D6B01692F782F0C151D055CF0B8
:102B60009D818E817E836D83692F782F902F812F99
:102B70008601C92ED82E1601201A310A2B012D816B
:102B80003E81421A530A57FE03C0519441945108A2
:102B9000710137FE03C03FEFE31AF30AF594E7949F
:102BA0008D819E81861797075CF5A1E0B0E0BA831E
:102BB000A983C016D1064CF1D301ED91FC91048498
:102BC000F585E02D2B813C81A8016D817E818A14E1
:102BD0009B041CF04D815E81B801C3010995E41886
:102BE000F508F7FE0AC02D813E8189819A81280F60
:102BF000391F3E832D83E20CF31C0F5F1F4FD9CF8B
:102C00002FEF3FEF3A832983D4CF26960FB6F8945F
:102C1000DEBF0FBECDBFDF91CF911F910F91FF900F
:102C2000EF90DF90CF90BF90AF909F908F907F906C
:102C30006F905F904F903F902F900895089590E08F
:102C400080E008950E94ED096093820270938302F0
:102C5000809384029093850210928C0210928D02D0
:102C600010928E0210928F0210929502109294028E
:102C70008FEF9FEFDC018093900290939102A093DD
:102C80009202B093930210928B0210928A020895DE
:102C90002091240430912504C901079697FD0796D9
:102CA00023E0959587952A95E1F7209122043091AC
:102CB0002304829FA001839F500D929F500D1124E9
:102CC00070E060E080913D0490913E040C94AD2A48
:102CD00085ED8093BC008091E8029091E902A0917B
:102CE000EA02B091EB020796A11DB11D23E0B69553
:102CF000A795979587952A95D1F72091BC0024FD3B
:102D000003C01092350308954091E8025091E90202
:102D10006091EA027091EB02452B462B472B69F339
:102D20000097A105B10541F025E32A95F1F70000D0
:102D30000197A109B109E1CF8091E7020C94F50751
:102D40000E94A82AFB0101900020E9F73197AF010A
:102D5000461B570BDC01ED91FC910280F381E02DC5
:102D600009948F929F92AF92BF92EF92FF920F932E
:102D70001F93CF93DF93CDB7DEB7A1970FB6F8942B
:102D8000DEBF0FBECDBF7C01FA01CB0119A22230FC
:102D900008F42AE08E010F5D1F4F822E912CB12C7A
:102DA000A12CBF01A50194010E941827F901CA01B5
:102DB0006A300CF5605DD8016E938D01232B242BB6
:102DC000252B79F790E080E0109721F0BD01C70135
:102DD0000E94A216A1960FB6F894DEBF0FBECDBF1B
:102DE000DF91CF911F910F91FF90EF90BF90AF9027
:102DF0009F908F900895695CDECFCF92DF92EF9223
:102E0000FF920F931F93CF93DF936B01770FEE0821
:102E1000FF08F7FE1FC0EC01E881F9810190F08105
:102E2000E02D6DE209958C0144275527BA014C1914
:102E30005D096E097F092AE0CE010E94B116800F5C
:102E4000911FDF91CF911F910F91FF90EF90DF9035
:102E5000CF9008952AE0B701A601DF91CF911F918D
:102E60000F91FF90EF90DF90CF900C94B1168F925E
:102E70009F92AF92BF92CF92DF92EF92FF921F93F9
:102E8000CF93DF936B017C01B42E20E030E0A901E9
:102E90000E94AD27D0E0C0E087FF0AC06DE28EE15E
:102EA00094E00E946412EC01F7FAF094F7F8F094C1
:102EB00010E060E070E080E09FE31B1541F020E04F
:102EC00030E040E251E40E94B2271F5FF6CFA70135
:102ED00096010E9441276B017C010E942B284B0127
:102EE0005C012AE0BC01A4018EE194E00E94B116CD
:102EF000C80FD91F1123D1F1C501B4010E945A286E
:102F00009B01AC01C701B6010E9440276B017C0107
:102F10006EE28EE194E00E946412C80FD91F115036
:102F200028F120E030E040E251E4C701B6010E9400
:102F300011294B015C010E942B286B01F12CE12C23
:102F40002AE0B701A6018EE194E00E94B116C80FF5
:102F5000D91FC701B6010E945A289B01AC01C501C7
:102F6000B4010E9440276B017C01D9CFCE01DF91D3
:102F7000CF911F91FF90EF90DF90CF90BF90AF90D7
:102F80009F908F9008958F929F92AF92BF92CF9211
:102F9000DF92EF92FF92CF936B017C01C42FAC01C3
:102FA0009B010E947E2968E471E081111AC04601EC
:102FB0005701E894B7F82FEF3FEF4FE75FE7C50100
:102FC000B4010E947E29811119C02FEF3FEF4FE716
:102FD0005FE7C501B4010E94AD2718167CF46CE4CC
:102FE00071E08EE194E0CF91FF90EF90DF90CF9071
:102FF000BF90AF909F908F900C94A2162FEF3FEF51
:103000004FE75FE4C701B6010E940C2918161CF4B3
:1030100060E571E0E6CF2FEF3FEF4FE75FECC701D0
:10302000B6010E94AD2787FDF3CF4C2FC701B60133
:10303000CF91FF90EF90DF90CF90BF90AF909F9097
:103040008F900C9437171F920F920FB60F92112486
:103050002F933F934F935F936F937F938F939F93A0
:10306000AF93BF93EF93FF938091B900887F803631
:1030700009F44AC0F0F5883209F4A7C018F5803188
:1030800009F49BC0B8F4882309F4F9C0883009F426
:1030900094C0FF91EF91BF91AF919F918F917F91DC
:1030A0006F915F914F913F912F910F900FBE0F90B5
:1030B0001F901895883109F488C0803251F78093A9
:1030C000340314C0803409F49DC040F48033B9F354
:1030D0008833F9F68093340385ECB0C0803509F469
:1030E00085C0883509F496C0883499F60E94681620
:1030F000D0CF883909F48CC038F5883729F050F4DE
:10310000883611F0803729F683E0809335031092DA
:10311000330357C0883809F47BC0803919F08038F0
:1031200009F0B7CF80913303803208F071C0E0918D
:10313000330381E08E0F809333038091BB00F0E076
:10314000ED5EFC4F80833DC0803B39F0E0F4803A77
:1031500009F479C0883A09F09CCF84E08093350364
:103160001092100310920F03E0910D03F0910E03E3
:10317000099580910F0381110FC081E080930F03A7
:103180001092ED0209C0803C09F4A6CF883C09F4F6
:10319000A3CF883B09F07DCFE091100381E08E0F33
:1031A00080931003F0E0E351FD4F80818093BB00DA
:1031B0009091100380910F0329C080915A0380934E
:1031C000BB0085EC8093BC0064CF90915903809143
:1031D0005803981758F5E091590381E08E0F8093BA
:1031E0005903F0E0E85CFC4F8081E9CFE09159039E
:1031F00081E08E0F809359038091BB00F0E0E85C82
:10320000FC4F808390915903809158039817C8F21E
:1032100085E8D8CFE091590381E08E0F8093590360
:103220008091BB00F0E0E85CFC4F80838091370325
:1032300081115CCF81E08093360384EA8093BC00E7
:103240001092350326CF85EC8093BC001092350395
:1032500080913303803230F4E0913303F0E0ED5E8F
:10326000FC4F10826091330370E0E0911103F09104
:10327000120383E193E00995109233030ACF109271
:10328000340334CF1F920F920FB60F9211242F9355
:103290003F938F939F93AF93BF9380919D029091A3
:1032A0009E02A0919F02B091A00230919C0223E067
:1032B000230F2D3758F50196A11DB11D20939C02B7
:1032C00080939D0290939E02A0939F02B093A002D0
:1032D0008091A1029091A202A091A302B091A402B8
:1032E0000196A11DB11D8093A1029093A202A0930B
:1032F000A302B093A402BF91AF919F918F913F9190
:103300002F910F900FBE0F901F90189526E8230F56
:103310000296A11DB11DD2CF1F920F920FB60F9230
:1033200011242F933F934F935F936F937F938F93CA
:103330009F93AF93BF93EF93FF9387E693E00E9431
:103340009B0AFF91EF91BF91AF919F918F917F91D8
:103350006F915F914F913F912F910F900FBE0F9002
:103360001F9018951F920F920FB60F9211242F9352
:103370008F939F93EF93FF93E0917703F0917803FE
:103380008081E0917D03F0917E0382FD1BC09081DE
:10339000809180038F5F8F7320918103821741F0AA
:1033A000E0918003F0E0E959FC4F958F8093800312
:1033B000FF91EF919F918F912F910F900FBE0F90E2
:1033C0001F9018958081F4CFEF92FF921F93CF93B7
:1033D000DF93E7E6F3E01382128288EE93E0A0E049
:1033E000B0E084839583A683B7838EE091E09183D8
:1033F000808385EC90E09587848784EC90E09787C4
:10340000868780EC90E0918B808B81EC90E0938BB1
:10341000828B82EC90E0958B848B86EC90E0978B8E
:10342000868B118E128E138E148EEEE1F4E01382D1
:10343000128220E830E03583248380E490E0978393
:1034400086833187208793878287168A158614861C
:103450001786168611E0158B148BEE24EA94FE2C49
:10346000F38AE28AF18AE08A178B108E128E118E0F
:1034700080E291E091838083148E138E168E158ED8
:1034800010A2178E89E084A38AE085A38BE086A32F
:103490008CE087A38DE080A780E586AF17AE60E063
:1034A00086E00E941608EAE4FBE0E491A0E1B4E0C3
:1034B000EC93E6E3FBE0E491F0E0EE0FFF1FEA5D42
:1034C000F44F8591949112969C938E9311971B962D
:1034D0001C921B971D961C921D971C961C921C9764
:1034E0001A961C921A9719961C92199718961C9264
:1034F000189717961C92179716961C921697159662
:103500001C92159714961C92149713961C92C4E063
:10351000D4E085E0888387E0898388E08A8384E635
:103520008B83198618871C821D821E821F82FB8650
:10353000EA8661E085E00E94160861E089810E94C8
:10354000160861E08A81DF91CF911F91FF90EF9083
:103550000C941608CF93DF9300D000D01F92CDB704
:10356000DEB7789484B5826084BD84B5816084BD03
:1035700085B5826085BD85B5816085BD80916E0011
:10358000816080936E001092810080918100826042
:10359000809381008091810081608093810080917F
:1035A00080008160809380008091B100846080936E
:1035B000B1008091B00081608093B00080917A006A
:1035C000846080937A0080917A00826080937A0090
:1035D00080917A00816080937A0080917A0080687F
:1035E00080937A001092C100E0917703F091780304
:1035F00082E08083E0917303F09174031082E09184
:103600007503F09176038FEC808310927F03E09135
:103610007B03F0917C0386E08083E0917903F09155
:103620007A03808180618083E0917903F0917A034D
:10363000808188608083E0917903F0917A038081B2
:1036400080688083E0917903F0917A0380818F7D97
:10365000808361E08EE00E94160862E080E10E94B3
:10366000160862E081E10E94160862E082E10E9491
:10367000160862E083E10E94160861E083E00E9480
:10368000160880913D0490913E04892B71F520919C
:10369000240430912504C901079697FD0796B3E0ED
:1036A00095958795BA95E1F72091220430912304EE
:1036B000AC01429FC001439F900D529F900D112479
:1036C0000E94832990933E0480933D04892B69F4E2
:1036D0006AE27AE087E693E00E94F90964E571E026
:1036E00087E693E00E94A216FFCF0E944816209121
:1036F0002404309125048091220490912304B9017F
:10370000213231050CF4F2C16054710977FF02C017
:103710006F5F7F4F759567958255910997FD01966B
:1037200000E410E022E530E04AE657E09595879501
:103730000E94101582E08093400480913B04909198
:103740003C04892B09F4E7C180912404909125045D
:10375000809709F0DEC18CE380933F041092E6026B
:103760001092E50210926403109263030E94D7073F
:1037700080ED96E090930E0380930D0381ED96E02B
:1037800090931203809311038091460487FD1EC01D
:1037900061E00E94160861E0809146040E94A9073A
:1037A00061E070E080E090E00E94BB0960E0809101
:1037B00046040E94A9076AE070E080E090E00E9461
:1037C000BB0961E0809146040E94A90780913B04F7
:1037D00090913C04892B09F45FC2209153043091ED
:1037E0005404409155045091560460E074E284EF13
:1037F00090E00E941827205131094109510956953E
:103800004795379527952093B80064E086E895E0C2
:103810000E94880D6091240461508EE194E00E9422
:103820003D0E64E082E895E00E94880D809140049E
:1038300060E1813009F064E18EE194E00E943D0E88
:1038400064E08EE795E00E94880D8FE880935B042A
:1038500080912204909123048038910509F035C2AB
:1038600080912404909125048034910509F042C28E
:1038700080914004813009F026C28FE980935B0477
:1038800092E199836AED8EE194E00E943D0E698198
:103890008EE194E00E943D0E61E88EE194E00E948A
:1038A0003D0E60915B048EE194E00E943D0E69ED57
:1038B0008EE194E00E943D0E8091400462E28130EE
:1038C00009F061EF8EE194E00E943D0E66E088E72A
:1038D00095E00E94880D80913B0490913C04892BD7
:1038E00009F411C2209157043091580440915904B1
:1038F00050915A0460E074E284EF90E00E9418272F
:103900002051310941095109569547953795279519
:103910002093B8000E94481680911D04811104C0B4
:103920000E946F068111F9C110921B0410921D04B0
:1039300010921C0464E571E087E693E00E94A216F1
:1039400010921B0410921D0410921C0410921A0471
:103950001092190410921804109217041092160471
:103960001092150410921404109213046AEF70E080
:1039700080E090E00E94BB091092890210928802B8
:1039800081E090E090939702809396029093790162
:103990008093780180933204809333048EE190E029
:1039A000909303018093020110927D0210927C0299
:1039B0008AE090E090938702809386020E94ED094E
:1039C00060937201709373018093740190937501F9
:1039D000109277011092760110920101109200016D
:1039E00038EE432E33E0532E612C712C42E0242E0E
:1039F000312C80915D0190915E019A83898380E1F1
:103A00000E948007A981BA81A817B90709F0F3C1FC
:103A1000E0915F01F0916001FA83E98381E10E9406
:103A2000800729813A812817390709F017C2809148
:103A30006101909162019A83898382E10E948007EB
:103A4000A981BA81A817B90709F03BC22091630187
:103A5000309164013A83298383E10E948007498180
:103A60005A814817590709F05FC21A821982698181
:103A70007A8187E693E00E94FD1664E571E087E6AF
:103A800093E00E94A2160E946F060E945C0661E00D
:103A900084E40E942D060E946F060E945C0660E08E
:103AA0008EEB0E942D0610927101F090710128E0BA
:103AB0002F1508F44CC34F2D50E05A83498308E07A
:103AC00010E0E12CDD24D3940E94D8058111ED286B
:103AD000DD0C01501109C1F789819A818B599E4FE4
:103AE000DC01EC92F394F0927101DFCF6052710926
:103AF00077FF02C06F5F7F4F759567958357910978
:103B000097FD019600E210E023E730E04AE855E037
:103B10000DCE8DE321CE61E0809144040E94160811
:103B200061E0809145040E94160880914404082EAB
:103B3000000C990BFC01E05DF44FE491F0E0EE0F16
:103B4000FF1FED5FF44F2591349130934C04209387
:103B50004B04FC01EC5BF44FE491E0935104809141
:103B60004504082E000C990BFC01E05DF44FE49134
:103B7000F0E0EE0FFF1FED5FF44FA591B491B0930D
:103B80004E04A0934D04FC01EC5BF44FE491E093F0
:103B900052048C91E82BEC938091390490913A0473
:103BA000892B09F436C05FB75983F89480915C0182
:103BB000811127C0EAE3FBE08491EEE4FBE09491FD
:103BC000E82FF0E0EE0FFF1FE750F54FA591B491FD
:103BD000EC91E92321F461E08AE00E94A90761E009
:103BE0008AE00E9416088CB580618CBD8CB580641B
:103BF0008CBD61E08DE00E94160861E08BE00E94C0
:103C0000160880915C018F5F80935C0189818FBF72
:103C1000BBCD61E0809142040E94160861E0809172
:103C200043040E94160880914204082E000C990B50
:103C3000FC01E05DF44FE491F0E0EE0FFF1FED5F5B
:103C4000F44F259134913093480420934704FC01AC
:103C5000EC5BF44FE491E0934F0480914304082E11
:103C6000000C990BFC01E05DF44FE491F0E0EE0FE5
:103C7000FF1FED5FF44FA591B491B0934A04A09358
:103C80004904FC01EC5BF44FE491E09350048C9107
:103C9000E095E823EC9378CD8091390490913A0433
:103CA000892B31F080915C0490915D040E949F0EFD
:103CB000E0914D04F0914E049081809152048095E2
:103CC00089238083A2CD8FECD9CD80369105A9F4CC
:103CD0008091240490912504409791F480914004B0
:103CE000813031F480E180935B04A2E0A983CACDE6
:103CF0008FEAF9CFB2E0B983C5CDE2E0E983C2CD66
:103D0000F2E0F983BFCDE0914D04F0914E04808143
:103D100090915204892B8083FDCD60E080EF0E945A
:103D20002D0621E02D8300E0F12C31E039830E9443
:103D3000D805182F0E94D8051130F1F4813009F010
:103D40003FC03981313408F4EFCDF0921B04F110FB
:103D500003C081E080931D0480911304882309F43B
:103D6000E3CDA3E1B4E0EBE5F3E08D91819343E093
:103D7000E336F407D1F700CEE02FF0E0181315C0BA
:103D800080911B0449814817C0F4DF01A05FBB4F3D
:103D900013968C915D81852399F410E0A981F980B7
:103DA000A93018F4A0931C04FA2EE05FFB4F838126
:103DB0009D819095892383830CC099818913EDCFD0
:103DC000E02FF0E0E05FFB4F8381BD818B2B83838D
:103DD00011E0812F0E94FD05E981EF5FE983FD81FC
:103DE000FF0FFD83F11103C00F5F21E02D83083029
:103DF00008F49DCFA6CF65E070E080E090E00E94DF
:103E0000BB0980E10E94800749815A814817590700
:103E100009F4FECD80E10E94800790935E018093BB
:103E20005D01892B09F0F4CD209196023091970223
:103E30003A8329832230310509F0DBC08091880262
:103E400090918902019797FDC9C090938902809350
:103E5000880241E050E05A83498309CE65E070E072
:103E600080E090E00E94BB0981E10E948007E98127
:103E7000FA81E817F90709F4DACD81E10E94800799
:103E80009093600180935F01892B09F0D0CD42E0CF
:103E900050E05A8349838091960290919702823034
:103EA000910509F0BDC08091880290918902019628
:103EB000843091050CF0C0C09093890280938802F1
:103EC000D6CD65E070E080E090E00E94BB0982E121
:103ED0000E948007A981BA81A817B90709F4B6CD55
:103EE00082E10E9480079093620180936101892B97
:103EF00009F0ACCDA3E0B0E0BA83A983809196022B
:103F0000909197028230910509F0DEC0809188027D
:103F100090918902009709F094C081E090E090931D
:103F2000970280939602A3CD65E070E080E090E078
:103F30000E94BB0983E10E948007E981FA81E817AA
:103F4000F90709F492CD83E10E9480079093640100
:103F500080936301892B09F088CDE4E0F0E0FA83D7
:103F6000E98380919602909197028230910509F041
:103F7000D8C08091880290918902009771F20197D0
:103F8000D1F480910201909103018B3491059CF44E
:103F900001969093030180930201F12CE12C0EE035
:103FA00010E02FE730E040E350E061E070E08EE1A8
:103FB00094E00E942A1480918802909189028230B4
:103FC000910509F0A1C080917C0290917D02883E0C
:103FD000F3E09F070CF064C00A965EC083E090E0B7
:103FE0009093890280938802A1E0B0E0BA83A9830C
:103FF0003ECDE981FA81319771F4809188029091E8
:104000008902019797FF21CF29813A813093890254
:10401000209388022CCD81E090E09A8389833BCF66
:10402000019709F06BCF80918802909189020196E7
:10403000823091050CF440CF1092890210928802D0
:1040400016CD0197D1F480910201909103018F3137
:1040500091059CF001979093030180930201F12C4C
:10406000E12C0EE010E02FE730E040E350E061E0AB
:1040700070E08EE194E00E942A1480918802909171
:1040800089028230910579F480917C0290917D02C1
:10409000181619062CF40A9790937D0280937C02DF
:1040A0000E942216E4CC039709F0E1CC80918602AD
:1040B00090918702181619060CF0D9CC01979093AD
:1040C000870280938602D3CC019709F04ACF809172
:1040D000880290918902009729F4309297022092E9
:1040E0009602C5CC019709F03CCF809100019091D8
:1040F00001018D39BFEF9B070CF4B9CC0197909368
:10410000010180930001B3CC039709F0B0CC8091FA
:10411000860290918702843191050CF0A8CC01961B
:10412000CECF019709F0A3CC8091880290918902AB
:10413000009799F2019709F09ACC80910001909133
:104140000101843691050CF092CC0196D8CF609194
:10415000650170916601072E000C880B990B0E9477
:104160005C2820E030E040E85DE30E941129609384
:1041700098027093990280939A0290939B022091E7
:1041800096023091970280917801909179012817D9
:10419000390791F00E944816F12CE12C0EE010E056
:1041A0002FE730E040E350E061E070E08EE194E022
:1041B0000E942A140E9422168091960290919702E2
:1041C0008130910509F0FCC120918802309189026B
:1041D000232B09F0ECC110922F0410922E0490931F
:1041E00031048093300410922B0410922A04109210
:1041F0002D0410922C0464E67AE08EE194E00E9493
:10420000F90968E57AE08EE194E00E94F90981E01D
:1042100090E090937901809378018091960290913B
:10422000970281309105C9F5A0910704A9832091D7
:104230008802309189022230310509F0B4C310920E
:104240002F0410922E049093310480933004F9814E
:10425000EF2FF0E0FA83E98310922B0410922A04E6
:1042600028E030E030932D0420932C046EE67AE0B1
:104270008EE194E00E94F90949815A81452B09F0A9
:104280009BC369E571E08EE194E00E94A2166BE6A3
:104290007AE08EE194E00E94F90980919602909173
:1042A00097028130910569F5C0909802D0909902EB
:1042B000E0909A02F0909B0220918802309189024E
:1042C0002330310509F09BC310922F0410922E0465
:1042D000909331048093300410922B0410922A049E
:1042E00080E190E090932D0480932C046DE77AE0B8
:1042F0008EE194E00E94F90942E0C701B6010E94F4
:10430000C31780919602909197028130910509F030
:1043100081C020918802309189022130310509F055
:1043200077C310922F0410922E04309331042093FF
:10433000300410922B0410922A04A8E1B0E0B0934C
:104340002D04A0932C0460E97AE08EE194E00E94B1
:10435000F90960910001709101018EE194E00E94E1
:10436000FD166EE87AE08EE194E00E94F90960E0C3
:10437000809105040E94A90760E0809106040E94D4
:10438000A9076FEF70E0809104040E945208EFEFDC
:10439000FFEFF0930F04E0930E0410920D042091B0
:1043A000000130910101B901032E000C880B990B1B
:1043B00037FD37C30E945C2820E030E048EC52E42F
:1043C0000E94B22720E030E046EF52E40E9411291B
:1043D00020E030E044E053E40E9441270E9424287A
:1043E0006093070461E0809105040E94A90760E0E2
:1043F000809106040E94A9076091070470E08091F3
:1044000004040E94520810920F0410920E0481E0DE
:1044100080930D04809196029091970281309105CE
:1044200039F520918802309189022530310509F053
:104430002AC310922F0410922E049093310480937B
:10444000300410922B0410922A0420E230E03093C2
:104450002D0420932C046FE97AE08EE194E00E9411
:10446000F90942E060E070E080E090E40E943717D4
:104470008091960290919702029709F020C3409193
:104480007A0250917B025A8349838A01000F111FDF
:1044900006581E4F20E030E046E952E46091980251
:1044A0007091990280919A0290919B020E94B2278A
:1044B00020E030E040EC51E40E9411290E942428C1
:1044C00084E490E0861B970BD8018D939C936091B8
:1044D000020170910301072E000C880B990B0E94BA
:1044E0005C2820E030E046E952E40E94B22720E058
:1044F00030E040EC51E40E9411290E94242824E479
:10450000E22EF12CE61AF70A01E010E021E030E09B
:10451000A701B8018EE194E00E94D10C0E5F1F4FFD
:104520000F37110599F7E981FA81EF37F1050CF0A2
:10453000B3C23196F0937B02E0937A02EE24E394C7
:10454000F12C0FE310E030E020E040E350E070E0B9
:1045500060E08EE194E00E9495132FE730E04FE396
:1045600050E070E060E08EE194E00E9495130AE76D
:1045700011E01A82198280917A0290917B0229813E
:104580003A81281739070CF09AC2D8014D915D91F4
:104590008D0121E030E069817A818EE194E00E9412
:1045A000D10CE981FA813196FA83E983E4CF9093C3
:1045B0002F0480932E04109231041092300413CEF5
:1045C000029709F02ACE8091880290918902892B66
:1045D00009F0E9C010922F0410922E0481E090E0BF
:1045E000909331048093300410922B0410922A048B
:1045F00010922D0410922C0461E57AE08EE194E093
:104600000E94F90964E47AE08EE194E00E94F909DD
:104610003092790120927801E0910201F09103013A
:10462000FA83E983BF01FF0F880B990B0E945C2876
:104630004B015C01C0909802D0909902E0909A02E0
:10464000F0909B02A70196010E940C29181644F4D1
:1046500061E083E00E94A90760E085E00E94A9076D
:10466000A7019601C501B4010E94AD2787FF1AC0BA
:1046700060E083E00E94A90769817A816B5F7F4FC8
:10468000072E000C880B990B0E945C289B01AC0143
:10469000C701B6010E940C29181624F461E085E0D8
:1046A0000E94A907A5019401C701B6010E944027F5
:1046B0006B017C0120E030E0A9010E940C29460139
:1046C0005701181624F0B7FAB094B7F8B094609177
:1046D000860270918702072E000C880B990B0E94AE
:1046E0005C28A50194010E940C2918160CF066C0E4
:1046F0008091760190917701019769F480919402FD
:104700009091950201969093950280939402109255
:1047100077011092760100917C0210917D028091C8
:10472000900290919102A0919202B09193028F3FDA
:104730009F4FAF4FBF4F09F052C00115110509F44B
:104740004EC020E030E0A901C701B6010E940C294B
:104750001816DCF520E030E040E85FE3C701B60161
:104760000E94AD2787FF3BC02091820230918302D7
:10477000409184025091850229833A834B835C8364
:104780000E94ED0929813A814B815C81621B730B88
:10479000840B950B60939002709391028093920228
:1047A000909393021CC081E090E090932F0480933B
:1047B0002E04109231041092300416CF81E090E064
:1047C0009093770180937601A6CF20E030E040E817
:1047D0005FEBC701B6010E940C2918162CF28091DC
:1047E000900290919102A0919202B09193028F3F1A
:1047F0009F4FAF4FBF4F51F140918A0250918B02B2
:104800005A834983BA01550F880B990B0E945C2883
:104810009B01AC01C501B4010E940C29181684F457
:1048200020E030E0A901C701B6010E940C2918164A
:104830000CF0B5C0C701B6010E9424287A836983B1
:1048400089819A8190938B0280938A02012B41F493
:1048500060E083E00E94A90760E085E00E94A9076C
:104860000E94ED090091820210918302209184023E
:1048700030918502601B710B820B930BA301920197
:104880000E941827BA01A9012AE087E693E00E9456
:10489000B11667E571E087E693E00E94A216609189
:1048A0007C0270917D0287E693E00E94FD1664E52C
:1048B00071E087E693E00E94A2160E94ED09009144
:1048C0008202109183022091840230918502601B44
:1048D000710B820B930BA30192010E941827809108
:1048E0007C0290917D02092E000CAA0BBB0B2817AD
:1048F00039074A075B07F0F060E085E00E94A907EE
:1049000060E083E00E94A90761E082E00E94A907BD
:1049100061E084E00E94A90764E670E080E090E036
:104920000E94BB0960E082E00E94A90760E084E089
:104930000E94A9078091760190917701892B21F53A
:104940000E94ED09AB01BC0180918C0290918D0217
:10495000A0918E02B0918F020091720110917301AB
:104960002091740130917501801B910BA20BB30B48
:10497000840F951FA61FB71F80938C0290938D0202
:10498000A0938E02B0938F020E94ED096093720192
:104990007093730180937401909375013ECCC701AD
:1049A000B601905849CF90932F0480932E04109213
:1049B0003104109230044BCC69817A8164587109BA
:1049C000072E000C880B990B0E945C2820E030E039
:1049D00046EF52E40E94B22720E030E048EC52E477
:1049E0000E94112920E030E040E05FE30E9441276F
:1049F0000E9424288EE194E00E94FD1648CC9093FA
:104A00002F0480932E04109231041092300464CC51
:104A100090932F0480932E0410923104109230044E
:104A200088CC0E945C2820E030E048EC52E40E94F0
:104A3000B22720E030E046EF52E40E9411299B01AA
:104A4000AC0160E070E084E093E40E9440270E94A3
:104A500024286093070460E0809105040E94A90760
:104A600061E0809106040E94A9076091070470E04C
:104A7000809104040E94520881E090E090930F041A
:104A800080930E04C5CC90932F0480932E04109233
:104A9000310410923004D5CC10927B0210927A022D
:104AA000F12CE12C0EE010E02FE730E040E350E085
:104AB00061E070E08EE194E00E942A143FCD809185
:104AC000960290919702029709F043C0C090980215
:104AD000D0909902E0909A02F0909B028091880217
:104AE000909189028130910509F072C110922F04D2
:104AF00010922E04909331048093300410922B0472
:104B000010922A0428E030E030932D0420932C04E6
:104B10000E94A20E6AEB7AE08EE194E00E94F9090D
:104B200042E0C701B6010E94C31766EB7AE08EE14E
:104B300094E00E94F90960910201709103018EE1F5
:104B400094E00E94FD1660EB7AE08EE194E00E9412
:104B5000F9098091960290919702029709F061C03D
:104B60008091880290918902029709F03CC11092CD
:104B70002F0410922E0481E090E0909331048093F2
:104B800030040E94ED09009182021091830220916D
:104B9000840230918502601B710B820B930B609332
:104BA0007E0270937F028093800290938102109224
:104BB0002B0410922A0440E150E050932D044093BE
:104BC0002C046BEC7AE08EE194E00E94F90960918C
:104BD0007E0270917F0280918002909181020E94FA
:104BE0005A2820E030E04AE754E40E94B2270E94AD
:104BF00024288EE194E00E94FD1667EC7AE08EE1B5
:104C000094E00E94F90960917C0270917D028EE12E
:104C100094E00E94FD1661EC7AE08EE194E00E943F
:104C2000F9098091960290919702029779F5809107
:104C3000880290918902039709F0E0C010922F0436
:104C400010922E0481E090E0909331048093300420
:104C500010922B0410922A0488E190E090932D0486
:104C600080932C0467ED7AE08EE194E00E94F909CC
:104C700060918602709187028EE194E00E94FD1699
:104C800061ED7AE08EE194E00E94F909809196024C
:104C900090919702029709F041C081E090E09093D3
:104CA0002F0480932E04109231041092300410923D
:104CB0002B0410922A04A0E2B0E0B0932D04A0933C
:104CC0002C0461EE7AE08EE194E00E94F909609193
:104CD0008C0270918D0280918E0290918F020E94C1
:104CE0005A2820E030E04AE754E40E94B22742E02C
:104CF0000E94C3176EED7AE08EE194E00E94F909FC
:104D000060918A0270918B028EE194E00E94FD1600
:104D10006AED7AE08EE194E00E94F90980919602B2
:104D200090919702029709F041C081E090E0909342
:104D30002F0480932E0410923104109230041092AC
:104D40002B0410922A04E8E2F0E0F0932D04E093A3
:104D50002C046FEE7AE08EE194E00E94F9096091F4
:104D60009402709195028EE194E00E94FD166DEE22
:104D70007AE08EE194E00E94F909609190027091CE
:104D8000910280919202909193020E945C2820E00F
:104D900030E04AE754E40E94B22742E00E94C31781
:104DA0006AEE7AE08EE194E00E94F9090E94A20E78
:104DB00020E030E0232B11F40C94F91C0E94870AA8
:104DC000882311F40C94F91C0E9400000C94F91C27
:104DD00081E090E090932F0480932E041092310490
:104DE000109230048BCE81E090E090932F0480935A
:104DF0002E041092310410923004C3CE81E090E072
:104E000090932F0480932E0410923104109230045A
:104E10001FCF80E291E090931F0480931E04809145
:104E20003D0490913E04009711F00C941F2A0895C0
:104E3000A1E21A2EAA1BBB1BFD010DC0AA1FBB1F9E
:104E4000EE1FFF1FA217B307E407F50720F0A21B10
:104E5000B30BE40BF50B661F771F881F991F1A947D
:104E600069F760957095809590959B01AC01BD01A7
:104E7000CF010895EE0FFF1F0590F491E02D0994E6
:104E80005058BB27AA270E9458270C94D2280E946A
:104E9000C42838F00E94CB2820F039F49F3F19F441
:104EA00026F40C94C1280EF4E095E7FB0C94BB2883
:104EB000E92F0E94E32858F3BA17620773078407A3
:104EC000950720F079F4A6F50C9405290EF4E095E9
:104ED0000B2EBA2FA02D0B01B90190010C01CA01B4
:104EE000A0011124FF27591B99F0593F50F4503E5F
:104EF00068F11A16F040A22F232F342F4427585F51
:104F0000F3CF469537952795A795F0405395C9F768
:104F10007EF41F16BA0B620B730B840BBAF0915020
:104F2000A1F0FF0FBB1F661F771F881FC2F70EC0BF
:104F3000BA0F621F731F841F48F487957795679592
:104F4000B795F7959E3F08F0B0CF9395880F08F07E
:104F50009927EE0F9795879508950E94972808F452
:104F600081E008950E94C6270C94D2280E94CB2885
:104F700058F00E94C42840F029F45F3F29F00C94B7
:104F8000BB2851110C9406290C94C1280E94E328D7
:104F900068F39923B1F3552391F3951B550BBB2768
:104FA000AA2762177307840738F09F5F5F4F220FAD
:104FB000331F441FAA1FA9F335D00E2E3AF0E0E8A4
:104FC00032D091505040E695001CCAF72BD0FE2FEE
:104FD00029D0660F771F881FBB1F26173707480782
:104FE000AB07B0E809F0BB0B802DBF01FF2793583A
:104FF0005F4F3AF09E3F510578F00C94BB280C941B
:1050000006295F3FE4F3983ED4F38695779567953C
:10501000B795F7959F5FC9F7880F911D969587956E
:1050200097F90895E1E0660F771F881FBB1F62178D
:1050300073078407BA0720F0621B730B840BBA0B4B
:10504000EE1F88F7E09508950E942B286894B1110F
:105050000C94062908950E94EB2888F09F5798F039
:10506000B92F9927B751B0F0E1F0660F771F881F6D
:10507000991F1AF0BA95C9F714C0B13091F00E9487
:105080000529B1E008950C940529672F782F88270A
:10509000B85F39F0B93FCCF3869577956795B395AE
:1050A000D9F73EF490958095709561957F4F8F4F1D
:1050B0009F4F0895E89409C097FB3EF49095809522
:1050C000709561957F4F8F4F9F4F9923A9F0F92FCE
:1050D00096E9BB279395F695879577956795B7954C
:1050E000F111F8CFFAF4BB0F11F460FF1BC06F5F32
:1050F0007F4F8F4F9F4F16C0882311F096E911C044
:10510000772321F09EE8872F762F05C0662371F064
:1051100096E8862F70E060E02AF09A95660F771F78
:10512000881FDAF7880F9695879597F90895990F54
:105130000008550FAA0BE0E8FEEF16161706E80761
:10514000F907C0F012161306E407F50798F0621B82
:10515000730B840B950B39F40A2661F0232B242B57
:10516000252B21F408950A2609F4A140A6958FEF76
:10517000811D811D089597F99F6780E870E060E0C8
:1051800008959FEF80EC089500240A9416161706E0
:1051900018060906089500240A9412161306140628
:1051A00005060895092E0394000C11F4882352F08B
:1051B000BB0F40F4BF2B11F460FF04C06F5F7F4F43
:1051C0008F4F9F4F089557FD9058440F551F59F02A
:1051D0005F3F71F04795880F97FB991F61F09F3FE4
:1051E00079F087950895121613061406551FF2CF0D
:1051F0004695F1DF08C0161617061806991FF1CF5D
:1052000086957105610508940895E894BB27662783
:105210007727CB0197F908950E94972808F48FEF1C
:1052200008950E9424290C94D2280E94C42838F0A2
:105230000E94CB2820F0952311F00C94BB280C94ED
:10524000C12811240C9406290E94E32870F3959F2D
:10525000C1F3950F50E0551F629FF001729FBB276D
:10526000F00DB11D639FAA27F00DB11DAA1F649F09
:105270006627B00DA11D661F829F2227B00DA11DBC
:10528000621F739FB00DA11D621F839FA00D611D42
:10529000221F749F3327A00D611D231F849F600D63
:1052A000211D822F762F6A2F11249F5750409AF08C
:1052B000F1F088234AF0EE0FFF1FBB1F661F771F18
:1052C000881F91505040A9F79E3F510580F00C94E3
:1052D000BB280C9406295F3FE4F3983ED4F38695EF
:1052E00077956795B795F795E7959F5FC1F7FE2B83
:1052F000880F911D9695879597F908950E94972894
:10530000880B990B08950F931F93CF93DF938230EF
:10531000910510F482E090E0E0916004F091610466
:1053200030E020E0B0E0A0E0309799F4211531059D
:1053300009F44AC0281B390B24303105D8F58A817D
:105340009B816115710589F1FB0193838283FE01C5
:1053500011C0408151810281138148175907E0F043
:105360004817590799F4109761F012960C93129709
:1053700013961C933296CF01DF91CF911F910F911D
:1053800008950093600410936104F4CF2115310552
:1053900051F04217530738F0A901DB019A01BD0112
:1053A000DF01F801C1CFEF01F9CF90936104809341
:1053B0006004CDCFFE01E20FF31F81939193225041
:1053C000310939832883D7CF20915E0430915F045F
:1053D000232B41F4209106013091070130935F04A3
:1053E00020935E04209104013091050121153105BF
:1053F00041F42DB73EB74091080150910901241B9B
:10540000350BE0915E04F0915F04E217F307A0F41E
:105410002E1B3F0B2817390778F0AC014E5F5F4F0A
:105420002417350748F04E0F5F1F50935F044093D9
:105430005E04819391939FCFF0E0E0E09CCFCF9307
:10544000DF930097E9F0FC01329713821282A0915A
:105450006004B0916104ED0130E020E01097A1F408
:1054600020813181820F931F20915E0430915F046F
:105470002817390709F061C0F0935F04E0935E04D8
:10548000DF91CF910895EA01CE17DF07E8F54A8151
:105490005B819E0141155105B1F7E901FB83EA8368
:1054A00049915991C40FD51FEC17FD0761F4808114
:1054B00091810296840F951FE901998388838281E7
:1054C00093819B838A83F0E0E0E012968D919C911A
:1054D00013970097B9F52D913C911197CD01029644
:1054E000820F931F20915E0430915F0428173907C3
:1054F00039F6309751F51092610410926004B09320
:105500005F04A0935E04BCCFD383C28340815181EA
:10551000840F951FC817D90761F44E5F5F4F8881CC
:105520009981480F591F518340838A819B819383BE
:1055300082832115310509F0B0CFF0936104E09327
:1055400060049ECFFD01DC01C0CF13821282D7CF51
:1055500081E090E0F8940C94B42ADC0101C06D93D2
:1055600041505040E0F7089515E0CDEAD5E004C081
:10557000FE010E943A272196CE3AD107C9F7F89446
:02558000FFCF5B
:1055820032002D0000006204800000000000BD0A0D
:105592001D0A4A0A0A0B7B0A590A6D0A000000001A
:1055A20064121D0A1F161E16D10CA8060915E11455
:1055B200FD14F1147115A8062A10D30F410C8A0CA0
:1055C2002A140D14951336136E616E00696E66000F
:0C55D2006F7666000D0A0020003000001B
:00000001FF
