:100000000C94A4050C94CC050C94CC050C94CC0554
:100010000C94CC050C94CC050C94CC050C94CC051C
:100020000C94CC050C94CC050C94CC050C94CC050C
:100030000C94CC050C94CC050C94CC050C94CC05FC
:100040000C94D4180C94CC050C9444190C941E19DF
:100050000C94CC050C94CC050C94CC050C94CC05DC
:100060000C94B5170C94CC0500000000003E5B4FCB
:100070005B3E3E6B4F6B3E1C3E7C3E1C183C7E3C08
:10008000181C577D571C1C5E7F5E1C00183C180016
:10009000FFE7C3E7FF0018241800FFE7DBE7FF30A6
:1000A000483A060E2629792926407F050507407F14
:1000B00005253F5A3CE73C5A7F3E1C1C08081C1C87
:1000C0003E7F14227F22145F5F005F5F06097F017D
:1000D0007F006689956A606060606094A2FFA29468
:1000E00008047E040810207E201008082A1C080836
:1000F0001C2A08081E101010100C1E0C1E0C303884
:100100003E3830060E3E0E06000000000000005F84
:1001100000000007000700147F147F14242A7F2AA0
:100120001223130864623649562050000807030062
:10013000001C2241000041221C002A1C7F1C2A08AE
:10014000083E080800807030000808080808000011
:1001500060600020100804023E5149453E00427F85
:10016000400072494949462141494D331814127FD4
:100170001027454545393C4A494931412111090774
:100180003649494936464949291E000014000000F5
:1001900040340000000814224114141414140041C7
:1001A00022140802015909063E415D594E7C121184
:1001B000127C7F494949363E414141227F414141BC
:1001C0003E7F494949417F090909013E4141517337
:1001D0007F0808087F00417F41002040413F017FA8
:1001E000081422417F404040407F021C027F7F0470
:1001F00008107F3E4141413E7F090909063E4151B9
:10020000215E7F09192946264949493203017F01A8
:10021000033F4040403F1F2040201F3F4038403FA9
:10022000631408146303047804036159494D4300BF
:100230007F4141410204081020004141417F0402F6
:10024000010204404040404000030708002054548D
:1002500078407F284444383844444428384444286B
:100260007F385454541800087E090218A4A49C78BE
:100270007F0804047800447D40002040403D007F1A
:100280001028440000417F40007C047804787C08FA
:100290000404783844444438FC18242418182424CE
:1002A00018FC7C08040408485454542404043F44B3
:1002B000243C4040207C1C2040201C3C4030403CE2
:1002C00044281028444C9090907C4464544C440042
:1002D00008364100000077000000413608000201A6
:1002E0000204023C2623263C1EA1A161123A404092
:1002F000207A38545455592155557941225454780F
:1003000042215554784020545579400C1E527212A7
:100310003955555559395454545939555454580030
:1003200000457C410002457D420001457C407D1234
:1003300011127DF0282528F07C5455450020545496
:100340007C547C0A097F4932494949323A44444441
:100350003A324A4848303A4141217A3A424020787C
:10036000009DA0A07D3D4242423D3D4040403D3C7D
:1003700024FF2424487E4943662B2FFC2F2BFF09A2
:1003800029F620C0887E0903205454794100004496
:100390007D413048484A32384040227A007A0A0A81
:1003A000727D0D19317D2629292F282629292926F4
:1003B00030484D4020380808080808080808382F39
:1003C00010C8ACBA2F102834FA00007B00000814C3
:1003D0002A142222142A14085500550055AA55AA99
:1003E00055AAFF55FF55FF000000FF00101010FF39
:1003F00000141414FF001010FF00FF1010F010F094
:10040000141414FC001414F700FF0000FF00FF1484
:1004100014F404FC141417101F10101F101F1414D0
:10042000141F00101010F0000000001F101010101A
:100430001F10101010F010000000FF10101010100E
:1004400010101010FF10000000FF140000FF00FF4C
:1004500000001F10170000FC04F4141417101714E8
:1004600014F404F40000FF00F7141414141414140A
:10047000F700F7141414171410101F101F1414147D
:10048000F4141010F010F000001F101F0000001FE7
:1004900014000000FC140000F010F01010FF10FF1A
:1004A000141414FF141010101F00000000F010FFAF
:1004B000FFFFFFFFF0F0F0F0F0FFFFFF0000000093
:1004C00000FFFF0F0F0F0F0F3844443844FC4A4A17
:1004D0004A347E02020606027E027E0263554941CC
:1004E000633844443C04407E201E2006027E020203
:1004F00099A5E7A5991C2A492A1C4C7201724C3017
:100500004A4D4D303048784830BC625A463D3E49ED
:100510004949007E0101017E2A2A2A2A2A44445F91
:10052000444440514A444040444A51400000FF0185
:1005300003E080FF000008086B6B08361236243693
:10054000060F090F060000181800000010100030F8
:1005500040FF0101001F01011E00191D1712003C80
:100560003C3C3C0000000000000103070F1F3F7FE0
:100570000080C0E0F0F8FCFEDB40A4A62EAF200017
:10058000A1C8D300408DAED580A800006000000057
:100590000000000000000000000000E0000000007B
:1005A00000000000000000000001E000000000006A
:1005B000000000000000000001F00000000000004A
:1005C0000000000000000003F00000000000000038
:1005D00000000000000007F0000000000000000024
:1005E000000000000007F80000000000000000000C
:1005F000000000000FF800000003C0007E000001B2
:10060000E0007F0FF800000003C000FE000001E0E2
:1006100000FFEFF800000003C000FE000001E00052
:10062000FFFFF800000003C000F00000000F007F93
:10063000FE7FC0000003C000F00000000F003FFE7E
:100640007FF83FF1FBCFFCFEF3BC3DEFE01FFE7FE8
:10065000FF7FFBFFDFFEFEFFBC3DEFE01FC6FFFF9D
:100660007FFBFFDFFEFEFFBC3DEFE00FE3C7FE7840
:100670007BC3DE1EF0FFBC3DEF0007FF87FC787BED
:10068000C3DE1EF0F83C3DEF0001FFFFF0007BC32E
:10069000C01EF0F03C3DEF0001F37FE03FFBC3CF15
:1006A000FEF0F03C3DEF0003E33F807FFBC3DFFE45
:1006B000F0F03C3DEF0007E73C00787BC3DE1EF026
:1006C000F03C3DEF0007FFBE00787BC3DE1EF0F07C
:1006D0003C3DEF0007FFFE00787BC3DE1EF0F03CE0
:1006E0003DEF000FFFFE007FFBFFDFFEF0F03FFD60
:1006F000EFE00FFFFF007FFBFFDFFEF0F03FFDEFBD
:10070000E00FF9FF003E79F9CF9EF0F01F3DE7E0E2
:100710001FF1FF0000000000000000000000001FAB
:1007200080FF007FFFFFFFFFFFFFFFFFFFE01C00D8
:100730007F007FFFFFFFFEB46D888D18E000001F73
:10074000007FFFFFFFFE95AD7DB577E000000F0055
:100750007FFFFFFFFEA5AD9D8D19E0000006007F25
:10076000FFFFFFFEB5ADEDB57EE00000000000012B
:100770008000000000000000000003800000000076
:10078000000000000007C0000000000000000000A2
:1007900007C00000000000000000000FC0000000C3
:1007A0000000000000001FE000000000000000004A
:1007B000001FE00000000000000000003FE000001B
:1007C000000000000000003FF000000000000000FA
:1007D00000007FF0000000000000001FF87FF00024
:1007E0000000000000003FFE7FF00000000000005D
:1007F000003FFF7FF0000000000000001FFFFBE053
:10080000000000000000000FFFF9FFC00000000022
:1008100000000FFFF9FFF800000000000007FFF1E3
:10082000FFFF00000000000003FC73FFFF800000DA
:1008300000000001FE3FFFFF80000000000000FFFD
:100840001E0FFF000000000000007FFE1FFC0000E4
:1008500000000000003FFFFFF80000000000000063
:100860000FDFFFE0000000000000001F19FFC000C4
:100870000000000000003F3CFF00000000000000FE
:10088000007E7CF800000000000000007FFE7C007D
:1008900000000000000000FFFFFC0000000000005E
:1008A0000000FFFFFE0000000000000000FFFFFE50
:1008B0000000000000000001FFEFFE00000000004B
:1008C000000001FFCFFE0000000000000003FF0752
:1008D000FE0000000000000003FC07FE0000000016
:1008E00000000003F003FE00000000000000018093
:1008F00000FE000000000000000000007E0000007C
:10090000000000000000003E0000000000000000A9
:1009100000000C000000000000078000FC00000345
:10092000C0000000078001FC000003C000000007B9
:100930008001FC000003C0000000078001E000000F
:10094000001E000000078001E00000001E007FE3A1
:10095000F79FF9FDE7787BDFC0FFF7FFBFFDFDFFE5
:10096000787BDFC0FFF7FFBFFDFDFF787BDFC0F0C6
:10097000F787BC3DE1FF787BDE00F0F787BC3DE107
:10098000F0787BDE0000F787803DE1E0787BDE00D9
:100990007FF7879FFDE1E0787BDE00FFF787BFFDF3
:1009A000E1E0787BDE00F0F787BC3DE1E0787BDEBC
:1009B00000F0F787BC3DE1E0787BDE00F0F787BC14
:1009C0003DE1E0787BDE00FFF7FFBFFDE1E07FFB6C
:1009D000DFC0FFF7FFBFFDE1E07FFBDFC07CF3F38B
:1009E0009F3DE1E03E7BCFC0000000000000000022
:1009F000000000FFFFFFFFFFFFFFFFFFFFC0FFFF43
:100A0000FFFFFD68DB111A31C0FFFFFFFFFD2B5A0E
:100A1000FB6AEFC0FFFFFFFFFD4B5B3B1A33C0FFDC
:100A2000FFFFFFFD6B5BDB6AFDC053534431333086
:100A30003620616C6C6F636174696F6E20666169EA
:100A40006C65640074656D7020636F6E74726F6C9A
:100A5000006D6F64656C3A0066616E20636F6E7442
:100A6000726F6C006D6F64656C3A0025006E6F7775
:100A70002066616E2073706565643A006E6F772042
:100A800074656D70657261747572653A0073657432
:100A90002066616E2073706565643A006E6F772022
:100AA00066616E2063757272656E743A0020732001
:100AB000202000202F200054696D653A002043203B
:100AC000202000453A0020432000732000452E548A
:100AD0002F4D2E453A00732000200065436E742F81
:100AE000552E543A0000000000240027002A000080
:100AF000000000250028002B000000000800020173
:100B0000000003040700000000000000002200FFB6
:100B10002100000000002300260029000404040432
:100B20000404040402020202020203030303030397
:100B30000102040810204080010204081020010274
:100B4000040810207619282311241FBECFEFD8E007
:100B5000DEBFCDBF11E0A0E0B1E0E0ECFDE402C0FB
:100B600005900D92A636B107D9F724E0A6E6B1E0CC
:100B700001C01D92A636B207E1F715E0C3EAD5E041
:100B800004C02197FE010E945923C23AD107C9F738
:100B90000E943C1A0C94D3260C94000080911404FB
:100BA000E0911504F0911604F8949181982B9183AB
:100BB0002281382F309523232283A7E0B0E01197BC
:100BC000F1F7918193239183A3E2B0E01197F1F7BC
:100BD00090817894EFECF0E03197F1F7982381E081
:100BE00009F480E0089590911404E0911504F091C7
:100BF0001604292F209580FF14C0F8948281822347
:100C000082838181892B8183A3E2B0E01197F1F780
:100C10008281982B9283789487ED90E00197F1F789
:100C20000895F8948281822382838181892B818334
:100C3000AFEFB0E01197F1F78281982B928378940F
:100C40008FE090E0EBCFFF920F931F93CF93DF9352
:100C5000F82E062FC8E0D0E011E081E09F2D91230F
:100C600009F480E00E94F305110F2197B1F70111FB
:100C700013C0F894E0911504F091160491818091CD
:100C80001404809598239183E0911504F091160443
:100C90009281892382837894DF91CF911F910F9164
:100CA000FF900895CF93DF9360E085E50E942306CF
:100CB000CFE5D3E060E089910E94230683E0C73648
:100CC000D807C1F7DF91CF91089580911404E09186
:100CD0001504F0911604F8949181282F2095922301
:100CE000918378943DE743E050E0315029F1DA01F7
:100CF0001197F1F790819823C1F3F8949281922390
:100D000092839181982B91837894ABE7B7E0119708
:100D1000F1F7F894918192239183A3E1B1E01197C7
:100D2000F1F79081982381E009F080E07894E3E680
:100D3000F6E03197F1F7089580E008950895209145
:100D40001303260F3327331F21323105ECF4209192
:100D50003903FC0190E080E0243069F082E00895DE
:100D6000A09113032191AC014F505D4FA40FB52FFB
:100D7000B11D2C930196861798F380911303680F89
:100D80006093130380E0089581E008950895089525
:100D9000E091EA028091E902E81730F4F0E0E753CD
:100DA000FD4F808190E008958FEF9FEF089590911F
:100DB000EA028091E9022FEF3FEF981748F4E92FFC
:100DC000F0E0E753FD4F208130E09F5F9093EA020F
:100DD000C90108958091E9029091EA02891B990B5B
:100DE0000895CF92DF92EF92FF920F931F93CF93CC
:100DF000DF937C01CB018A0120916A03222389F0D1
:100E0000EB016B01C40ED51ECC15DD0569F06991AF
:100E1000D701ED91FC910190F081E02DC70109957A
:100E2000F3CF642F0E949F06C801DF91CF911F91DD
:100E30000F91FF90EF90DF90CF900895CF93DF93C5
:100E40001F92CDB7DEB7698320916A032223F9F0A0
:100E500020916703203258F021E030E0FC01338319
:100E6000228390E080E00F90DF91CF9108958091F0
:100E70006803E82FF0E0E755FD4F998190838F5F7D
:100E8000809368038093670381E090E0ECCF61E09A
:100E9000CE0101960E949F06F7CF833081F028F49F
:100EA000813099F08230A9F008958730A9F0883018
:100EB000C9F08430B1F4809180008F7D03C08091AF
:100EC00080008F7780938000089584B58F7784BDEC
:100ED000089584B58F7DFBCF8091B0008F7780938C
:100EE000B00008958091B0008F7DF9CFCF93DF934C
:100EF000282F30E0F901E750F54F8491F901E05DCA
:100F0000F44FD491F901E45EF44FC491CC23A1F0E5
:100F100081110E944D07EC2FF0E0EE0FFF1FEE5EF7
:100F2000F44FA591B491EC91ED2381E090E009F4A8
:100F300080E0DF91CF91089580E090E0FACF1F9399
:100F4000CF93DF93282F30E0F901E750F54F8491DC
:100F5000F901E05DF44FD491F901E45EF44FC491DE
:100F6000CC23A9F0162F81110E944D07EC2FF0E041
:100F7000EE0FFF1FE151F54FA591B4918FB7F89493
:100F8000EC91111108C0D095DE23DC938FBFDF9167
:100F9000CF911F910895DE2BF8CF1092390381E095
:100FA00080933B0310923A0361E082E10E949F0725
:100FB00061E083E10E949F07E9EBF0E080818E7F92
:100FC000808380818D7F808388E48093B80085E46E
:100FD0008093BC000895CF93DF9391E09093F0024B
:100FE0008823B9F0C091B800D091BA008091BC00BC
:100FF0008A7B8093BC0060E082E10E949F0760E0F2
:1010000083E10E949F070E94CD07D093BA00C0934E
:10101000B800DF91CF910895CF93DF9390E0FC016A
:10102000E05DF44F2491845E944FFC018491882309
:10103000C9F090E0880F991FFC01EB51F54FA59185
:10104000B491FC01E151F54FC591D49161110DC0EE
:101050009FB7F8948C91209582238C9388812823C4
:1010600028839FBFDF91CF910895623051F49FB7DD
:10107000F8943C91822F809583238C93E8812E2BCA
:10108000EFCF8FB7F894EC912E2B2C938FBFEACF34
:101090003FB7F8948091A5029091A602A091A70273
:1010A000B091A80226B5A89B05C02F3F19F0019664
:1010B000A11DB11D3FBFBA2FA92F982F8827BC01B2
:1010C000CD01620F711D811D911D42E0660F771FDA
:1010D000881F991F4A95D1F70895CF92DF92EF921A
:1010E000FF920F931F93CF93DF93D091670381E01B
:1010F000D13208F09CC0C09169030E9448086B017E
:101100007C018091390381116CC082E080933903A6
:1011100081E080933B038FEF8093380310925D034F
:10112000D0935C03A9EAB2E0ECE3F3E080E0D813EB
:101130008DC010925E0380915E03CC0FC82BC093CC
:101140005E0380913A03813009F084C010923A0323
:101150000E9448086B017C0180915E038093BB0074
:101160008091EC029091ED02A091EE02B091EF021D
:10117000892B8A2B8B2BA1F00E9448080091EC024E
:101180001091ED022091EE023091EF026C197D0971
:101190008E099F09061717072807390708F442C068
:1011A0008091BC0083FDD8CF85EC8093BC000E9469
:1011B00048086B017C0180913903823009F44CC0EE
:1011C000809138038F3F09F469C0809138038032E1
:1011D00009F466C080913803803309F463C084E069
:1011E00026C08091EC029091ED02A091EE02B091A8
:1011F000EF02892B8A2B8B2B09F483CF0E9448089E
:101200000091EC021091ED022091EE023091EF027C
:101210006C197D098E099F090617170728073907DA
:1012200008F06FCF8091EB020E94EB0785E01092EF
:1012300068031092670310926A03DF91CF911F91A8
:101240000F91FF90EF90DF90CF9008959D91919333
:101250008F5F6DCF85EEA9CF8091EC029091ED026A
:10126000A091EE02B091EF02892B8A2B8B2B09F40F
:10127000A2CF0E9448080091EC021091ED0220914B
:10128000EE023091EF026C197D098E099F09061755
:1012900017072807390708F08ECFC4CF80E0C7CFE3
:1012A00082E0C5CF83E0C3CF8F929F92AF92BF926F
:1012B000CF92DF92EF92FF924B015C010E944808AF
:1012C0006B017C010E9448086C197D098E099F09F9
:1012D000683E734081059105A8F321E0821A9108C8
:1012E000A108B10888EEC80E83E0D81EE11CF11CED
:1012F00081149104A104B10429F7FF90EF90DF90CD
:10130000CF90BF90AF909F908F900895EF92FF92F3
:101310000F931F93CF93DF938C017B01D0E0C0E04C
:10132000F701EC0FFD1F6491662361F0D801ED9188
:10133000FC910190F081E02DC8010995892B11F0F5
:101340002196EECFCE01DF91CF911F910F91FF90AB
:10135000EF900895AF92BF92CF92DF92EF92FF92FB
:101360000F931F93CF93DF936C017B018B01040FCD
:10137000151FEB015E01AE18BF08C017D10759F069
:101380006991D601ED91FC910190F081E02DC601AB
:101390000995892B79F7C501DF91CF911F910F91A5
:1013A000FF90EF90DF90CF90BF90AF900895FC0139
:1013B000538D448D252F30E0842F90E0821B930BBA
:1013C000541710F0CF96089501970895FC01918D60
:1013D000828D981761F0A28DAE0FBF2FB11D5D9663
:1013E0008C91928D9F5F9F73928F90E008958FEF05
:1013F0009FEF0895FC01918D828D981731F0828DB9
:10140000E80FF11D858D90E008958FEF9FEF08950F
:10141000FC01918D228D892F90E0805C9F4F821B73
:1014200091098F73992708958BE693E00E94080A2B
:1014300021E0892B09F420E0822F089580E090E0DC
:10144000892B29F00E94140A81110C940000089540
:10145000FC01A48DA80FB92FB11DA35ABF4F2C9129
:10146000848D90E001968F739927848FA689B78920
:101470002C93A089B1898C91837080648C93938D17
:10148000848D981306C00288F389E02D80818F7DBA
:1014900080830895EF92FF920F931F93CF93DF9372
:1014A000EC0181E0888F9B8D8C8D98131AC0E889A0
:1014B000F989808185FF15C09FB7F894EE89FF896F
:1014C0006083E889F98980818370806480839FBF0D
:1014D00081E090E0DF91CF911F910F91FF90EF900D
:1014E0000895F62E0B8D10E00F5F1F4F0F7311271D
:1014F000E02E8C8D8E110CC00FB607FCFACFE88958
:10150000F989808185FFF5CFCE010E94280AF1CFAD
:10151000EB8DEC0FFD2FF11DE35AFF4FF0829FB7CB
:10152000F8940B8FEA89FB8980818062CFCFCF93BB
:10153000DF93EC01888D8823B9F0AA89BB89E889FB
:10154000F9898C9185FD03C0808186FD0DC00FB6A1
:1015500007FCF7CF8C9185FFF2CF808185FFEDCF1F
:10156000CE010E94280AE9CFDF91CF910895EF9232
:10157000FF920F931F93CF93DF93EC01EC80FD80DC
:101580006E157F050CF070C057FF04C0240F351F87
:1015900050E040E08E819F81FA01E20FF31F8E1729
:1015A0009F071CF49C01241B350B121613060CF02C
:1015B0005BC0922F842F8695869586958E9DD0014F
:1015C0008F9DB00D11246A0F7B1FAF8DB8A1A60FA0
:1015D000B71F477049F188E0841B482F682F70E0DF
:1015E000FB01E059FA4FE491281708F063C0621B31
:1015F00071092FEF30E002C0359527956A95E2F723
:10160000E2230130110539F0B0F10230110561F526
:101610008C91E82702C08C91E82BEC93941720F171
:101620002C813D81A20FB31FE92FE41BE83078F035
:101630000230110521F58E2F9C9190959C932C8161
:101640003D81A20FB31F88508830B0F7E770EE23BA
:1016500059F0F0E0E859FA4FE49101301105F9F042
:1016600010F10230110519F1DF91CF911F910F9107
:10167000FF90EF900895E0958C91E823CECF81E024
:101680000115110509F480E081959E2F8C932C8122
:101690003D81A20FB31F98509830C0F7D7CF8C91DF
:1016A000E82BEC93E1CFE0958C91E823FACF8C9175
:1016B000E827F7CF0130110509F4ADCFE0F2023091
:1016C000110509F4A5CFAE0DBF1DAECF0F931F932B
:1016D000CF93DF9377FF04C0260F371F70E060E0E1
:1016E000DC011496CD91DC91FB01E20FF31FCE17C4
:1016F000DF071CF49E01261B370B121613064CF550
:10170000FA0157FD3796A3E0F595E795AA95E1F71D
:10171000EC9FD001ED9FB00DFC9FB00D11246A0F1E
:101720007B1FDC015F96ED91FC91E60FF71F477080
:10173000552781E090E001C0880F4A95EAF7482FCD
:101740000130110559F0A8F02E0F3F1F023011058E
:10175000E1F0DF91CF911F910F9108952E0F3F1F60
:10176000E217F307B1F38191DF011197842B8C937A
:10177000F7CF80952E0F3F1FE217F30751F391919A
:10178000DF01119798239C93F7CFE217F30709F332
:101790008191DF01119784278C93F7CF0F931F93CB
:1017A000FA01DC0156964C9156974230E9F04330ED
:1017B000A1F1413061F514964D915C91DA01AE1BB7
:1017C000BF0BFD01E21BF30B77FD0BC0DC0116968E
:1017D0004D915C916417750724F4AB01BF010E9421
:1017E000660B1F910F91089514964D915C91DA014B
:1017F000A61BB70BBD0161507109DC0116964D9116
:101800005C91DA01AE1BBF0BFD01E21BF30B77FD10
:10181000E8CFAF010E94B70AE4CF16964D915C91D4
:10182000DA01A61BB70BBD0161507109CDCF0F9333
:101830001F93FA01DC0156964C9156974230A9F05D
:10184000433091F1413019F514964D915C91DA01D4
:10185000AE1BBF0BFD013197F7FD04C0AB01BF010B
:101860000E94B70A1F910F91089514964D915C91B3
:10187000DA01A61BB70BBD01DC0116964D915C91F8
:10188000DA01AE1BBF0BFD013197621B730BF7FD35
:10189000E9CFDC0116964D915C91E417F50714F73A
:1018A000AF010E94660BDECF16964D915C91DA0176
:1018B000A61BB70BBD01621B730BCECFFC0177FDDE
:1018C00064C080859185681779070CF05EC057FD6C
:1018D0005CC082859385481759070CF056C08689ED
:1018E0008230B1F0833029F1813041F484819581D7
:1018F000841B950BAB01BC0161507109213031058E
:1019000009F108F443C02230310509F463C0089599
:1019100084819581DC01A61BB70BBD016150710963
:1019200086819781DC01A41BB50BAD0141505109A3
:10193000E5CF86819781861B970BBA01AC01415098
:101940005109DCCFCA0157FD0796A3E0959587950D
:10195000AA95E1F7A481B5818A9F90018B9F300DF4
:101960009A9F300D1124620F731F078CF0A1E02D98
:10197000E60FF71F4770552721E030E001C0220F26
:101980004A95EAF78081822B80830895CA0157FD2A
:10199000079633E0959587953A95E1F7A481B5814F
:1019A0008A9F90018B9F300D9A9F300D1124620FFA
:1019B000731F078CF0A1E02DE60FF71F4770552726
:1019C00081E090E001C0880F4A95EAF78095908108
:1019D0008923DACFCA0157FD079623E095958795AD
:1019E0002A95E1F7A481B5818A9F90018B9F300DE4
:1019F0009A9F300D1124620F731F078CF0A1E02D08
:101A0000E60FF71F4770552721E030E001C0220F95
:101A10004A95EAF780818227B7CF08958EBD0000EE
:101A20000DB407FEFDCF8EB50895EF92FF920F9390
:101A30001F93CF93DF937C01C62F80913F04909139
:101A40004004009709F459C02091430431E03093D9
:101A50006A03209369031092680310926703DC0104
:101A6000ED91FC910190F081E02D60E009958701F6
:101A7000EE24E394F12CD1E0C15080913F04909189
:101A80004004CF3F91F1B0E2EB16F104D8F00E9490
:101A90006D0880913F049091400420914304D093BD
:101AA0006A03209369031092680310926703DC01B4
:101AB000ED91FC910190F081E02D60E00995EE241C
:101AC000E394F12C80913F0490914004F8016491DB
:101AD000DC01ED91FC910190F081E02D0995BFEFC3
:101AE000EB1AFB0A0F5F1F4FC7CFDF91CF911F91FA
:101AF0000F91FF90EF900C946D08E0914F04F091DE
:101B000050049081809155048095892380838701BA
:101B1000C15008F438C0F801849120913D043091FF
:101B20003E04232B29F00E940E0D0F5F1F4FF0CFB4
:101B300028E030E040E8E0914B04F0914C049091B3
:101B40005304582F5423D9F05081952B9083E09162
:101B50004D04F0914E04908150915404952B908344
:101B6000E0914D04F0914E04508190915404909571
:101B700095239083469521503109E9F6D6CF5081BF
:101B800090959523E3CFDF91CF911F910F91FF9017
:101B9000EF9008951F93CF93DF93EC018D8D9E8D71
:101BA000009721F1162F29A131E030936A03209389
:101BB00069031092680310926703DC01ED91FC91B8
:101BC0000190F081E02D60E009958D8D9E8DDC0106
:101BD000ED91FC910190F081E02D612F09958D8DA3
:101BE0009E8DDF91CF911F910C946D08ADA5BEA580
:101BF0009C918BA9809589238C938B8D9C8D892BAF
:101C000031F0862FDF91CF911F910C940E0D28E0BB
:101C100030E080E8A9A5BAA599A9462F4823C1F0CC
:101C20004C91942B9C93ABA5BCA59C914AA9942B59
:101C30009C93ABA5BCA54C919AA9909594239C9399
:101C400086952150310931F7DF91CF911F91089589
:101C50004C9190959423E6CF8CBD9DBD0895DF9265
:101C6000EF92FF920F931F93CF93DF9380913F04E6
:101C700090914004892B09F498C020915704309129
:101C800058044091590450915A0460E074E284EF82
:101C900090E00E943723205131094109510956959E
:101CA0004795379527952093B80065E08DE09BE038
:101CB0000E94150D60912604615082E294E00E941A
:101CC000CA0D2091280430912904C901079697FD77
:101CD000079633E0959587953A95E1F7209126048C
:101CE00030912704829F8001839F100D929F100DD9
:101CF0001124C0914104D091420480913F049091FD
:101D000040040C0F1D1F009709F48FC0209143045D
:101D100031E030936A0320936903109268031092B4
:101D20006703DC01ED91FC910190F081E02D60E40E
:101D30000995EE24E394F12CDD24D39480913F04A3
:101D4000909140040C171D0709F446C0B0E2EB1651
:101D5000F104D8F00E946D0880913F0490914004F6
:101D600020914304D0926A03209369031092680380
:101D700010926703DC01ED91FC910190F081E02D60
:101D800060E40995EE24E394F12C80913F04909156
:101D900040046991DC01ED91FC910190F081E02D0E
:101DA0000995BFEFEB1AFB0AC9CF80913D049091D2
:101DB0003E04892B31F080916004909161040E946F
:101DC0002C0EE0915104F0915204908180915604C0
:101DD00080958923808369CF0E946D0880913F049C
:101DE00090914004892B09F461C020915B043091EB
:101DF0005C0440915D0450915E0460E074E284EF05
:101E000090E00E943723205131094109510956952C
:101E10004795379527952093B800DF91CF911F9173
:101E20000F91FF90EF90DF900895E0914F04F091B3
:101E30005004808190915504892B80830C171D07D5
:101E400069F2899120913D0430913E04232B19F0D1
:101E50000E940E0DF3CF28E030E040E8E0914B0403
:101E6000F0914C0490915304582F5423D9F0508191
:101E7000952B9083E0914D04F0914E049081509108
:101E80005404952B9083E0914D04F0914E045081C1
:101E90009091540490959523908346952150310953
:101EA000E9F6CCCF508190959523E3CFE091510492
:101EB000F0915204808190915604892B8083ADCF9C
:101EC0001F93CF93DF93EC01162F8D8D9E8D892B61
:101ED000B1F12DA93EA94FA958AD60E074E284EF9D
:101EE00090E00E943723205131094109510956954C
:101EF0004795379527952093B80066EA111167EA50
:101F0000CE010E94CA0D8D8D9E8D892B41F129AD88
:101F10003AAD4BAD5CAD60E074E284EF90E00E94BE
:101F20003723205131094109510956954795379575
:101F300027952093B800DF91CF911F9108958B8D45
:101F40009C8D892B21F08EAD9FAD0E942C0EEFA5AC
:101F5000F8A990818CA9809589238083CECFEFA5A5
:101F6000F8A980819CA9892B8083E5CF0895FC0185
:101F70006370668B8481958126813781613039F069
:101F8000633029F0918780873387228708953187CE
:101F900020879387828708952F923F924F925F9276
:101FA0006F927F928F929F92AF92BF92CF92DF9269
:101FB000EF92FF920F931F93CF93DF93CDB7DEB7CE
:101FC0006A970FB6F894DEBF0FBECDBF9A8F898F88
:101FD0007A8369834A01D22E18870F833701BC2C7C
:101FE000DC0159962D913C915A972115310509F044
:101FF00015C118968D919C911997681779070CF067
:10200000D7C11A968D919C91481759070CF0D0C1F1
:102010004C2C512CB6E0CB9E600D711D11247C8799
:102020006B87161617060CF0C3C1EA2DF0E0FA878D
:10203000E98793E0EE0FFF1F9A95E1F7F88BEF87A2
:10204000CF01840F951F181619060CF0B1C1A98D88
:10205000BA8D58968C91811104C0BFEABD1508F461
:10206000D394A98DBA8DED91FC9111970284F385DB
:10207000E02DCD010995B5E0DB9EC0011124E98179
:10208000FA81FC83EB83312C212C9C0128593F4F92
:10209000388F2F8B4A2D50E05E8B4D8BEF89F88D5A
:1020A000E20DF31D44919E828D82D12CC12C698159
:1020B0007A81620D731D7A8B698B842F90E09C8BE3
:1020C0008B8BE98DFA8DA081B18140FF82C0F1E058
:1020D000BF126FC0AF126DC01C96ED91FC912F81A5
:1020E0003885A4014C0D5D1D69897A89898D9A8D89
:1020F0000995EB89FC89F595E7954E2F5FEFC51A99
:10210000D50A6D817E818D899E89680F791F7E83B6
:102110006D8398E0C916D10481F6AFEF2A1A3A0A06
:10212000EB81FC81E40DF51DFC83EB83F5E02F16BC
:10213000310409F0B3CF2F81388526153705B9F062
:10214000A98DBA8DED91FC91B1E0BB1257C0AB12D5
:1021500055C069817A816B5F7F4F0088F189E02DDE
:10216000830128E030E0A401898D9A8D0995A98D1D
:10217000BA8DED91FC9111970688F789E02DCD017C
:102180006A960FB6F894DEBF0FBECDBFDF91CF9138
:102190001F910F91FF90EF90DF90CF90BF90AF9085
:1021A0009F908F907F906F905F904F903F902F9077
:1021B00009941E96ED91FC91EF80F88409851A85AB
:1021C00092014D815E816B817C81898D9A8D09950B
:1021D00090CF2F8138852615370509F48ACF31E055
:1021E000B31207C0A31205C01C96ED91FC91930198
:1021F00078CF1E96ED91FC917301E0CF6B857C85C5
:10220000641975090684F785E02D73010F85188917
:102210009201A401898D9A8D0995A9CFF90134966F
:102220009491329745915491D91AB7E0DB9E400DB5
:10223000511D1124F901259134913C8B2B8BFA010E
:1022400025903490FA013296749031963491398BFE
:10225000329664903196449041E04C1518F04A153E
:1022600008F07FC0662D062C000C770B7C836B83F7
:10227000842D042C000C990B9E838D83A98DBA8D1F
:10228000ED91FC9111970284F385E02DCD01099524
:10229000512CD12CC12CEA2DF0E0FA87E9872B2DA7
:1022A00030E03C872B87A401440D511D47FC5A9513
:1022B000588F4F8B69817A81660D711D67FC7A9505
:1022C0007E876D877989C71608F051CF2C2D30E0B5
:1022D0004D815E81420F531FA985BA854A9FC00177
:1022E0004B9F900D5A9F900D1124FC01E80DF91D94
:1022F000F88BEF87852D612C4F89588D420F531F26
:102300005E8B4D8B671408F050C044244394480EF4
:10231000877041F4C1010196EB89FC89E20DF31D40
:10232000D4901C01D7FE19C0A98DBA8DED91FC91F6
:10233000662D70E0B1E0BB1219C0AB1217C02D853D
:102340003E85620F731F0484F585E02D2F8138854B
:102350004D895E89898D9A8D0995DD0C6394842D54
:10236000D1CF1E821D821C821B8288CF4B815C8153
:10237000640F751FAB85BC856A9FC0016B9F900D74
:102380007A9F900D112469817A81680F791F0684E4
:10239000F785E02DEF80F88409851A859D014F852A
:1023A0005889898D9A8D0995D8CF570CC3948ACFB7
:1023B0006A960FB6F894DEBF0FBECDBFDF91CF9106
:1023C0001F910F91FF90EF90DF90CF90BF90AF9053
:1023D0009F908F907F906F905F904F903F902F9045
:1023E00008958F929F92AF92CF92EF92FF920F93A8
:1023F0001F93CF93DF93EC01262F898D9A8D009741
:1024000009F051C06A30D1F41D861C868D8948E0E0
:10241000849F900111248E859F85820F931F9F8733
:102420008E8781E090E0DF91CF911F910F91FF9017
:10243000EF90CF90AF909F908F9008956D3089F37B
:10244000CC88AD888F898823C1F08C859D8536E046
:10245000C39E800D911D1124488559854817590741
:1024600064F44E855F851D861C8638E0A39EC001FE
:102470001124840F951F9F878E87EA88FB8808891F
:1024800019894E855F856C857D85CE010E94CC0FB4
:102490002C898C859D8546E0249F800D911D1124FB
:1024A0009D878C87BECF6A3069F41D861C86FC012F
:1024B0003896E4912D898E859F85E29F800D911D30
:1024C0001124ADCF6D3009F4ACCFFC0134963491BA
:1024D000631708F4A6CF3296E491E61708F4A1CF6B
:1024E000FC01329685909490462F431B342F47E091
:1024F000349F800C911C1124F40132963491319652
:10250000E4913323A9F1EE2399F1CC88F4013596B7
:10251000E491AD884F89442301F10E2E000CFF0B8E
:10252000E30FF11DCE9EA001CF9E500D11246C85AE
:102530007D85460F571F68857985641775076CF48C
:102540004E855F851D861C86FC013896E491AE9E03
:10255000400D511D11245F874E87EA88FB8808894A
:1025600019894E855F856C857D85CE010E94CC0FD3
:10257000F4013496E4912C898C859D85E29F800D31
:10258000911D11248DCF6F927F928F929F92AF9267
:10259000BF92CF92DF92EF92FF920F931F93CF9350
:1025A000DF93EC016B015A0139014801E881F9819F
:1025B0000284F385E02D0995E881F9810288F38989
:1025C000E02D87019301A501B601CE010995A50172
:1025D000480D591D41505109E881F9810288F3895C
:1025E000E02D9301B601CE010995E881F9810088BB
:1025F000F189E02D9401A501B601CE010995C60C23
:10260000D71CB60161507109E881F9810088F18910
:10261000E02D9401A501CE010995E881F981068894
:10262000F789E02DCE01DF91CF911F910F91FF909F
:10263000EF90DF90CF90BF90AF909F908F907F9062
:102640006F9009946F927F928F929F92AF92BF92F8
:10265000CF92DF92EF92FF920F931F93CF93DF936E
:102660005C01EB016A01490138018701DC01ED9150
:10267000FC916217730719F5641675062CF0962DF8
:10268000872D3A01C92ED82E9601261937092F5FBA
:102690003F4F048CF58DE02DA301BE01C5010995C6
:1026A000DF91CF911F910F91FF90EF90DF90CF902E
:1026B000BF90AF909F908F907F906F900895461538
:1026C000570591F42617370724F0892D4B01C22FA7
:1026D000D82F9E01281939092F5F3F4F068CF78D9F
:1026E000E02DA601B401DACF0284F385E02D09952F
:1026F000D501ED91FC910488F589E02D83019401C9
:10270000A601BE01C5010995D501ED91FC91068890
:10271000F789E02DC501DF91CF911F910F91FF90B7
:10272000EF90DF90CF90BF90AF909F908F907F9071
:102730006F900994EF92FF920F931F93DC011A960A
:102740000D911C911B9718962D913C911997ED9125
:10275000FC9100A0F1A1E02D7B0150E040E070E091
:1027600060E009951F910F91FF90EF9008954F92AF
:102770005F926F927F928F929F92AF92BF92CF9211
:10278000DF92EF92FF920F931F93CF93DF936C0131
:102790002B015A0139014801DC01ED91FC910284C1
:1027A000F385E02D0995E201640C751CD601ED91CD
:1027B000FC91C615D7055CF40088F189E02D8701EE
:1027C0009401A501BE01C60109952196EFCF0688A7
:1027D000F789E02DC601DF91CF911F910F91FF90F6
:1027E000EF90DF90CF90BF90AF909F908F907F90B1
:1027F0006F905F904F9009948F929F92AF92BF928B
:10280000CF92DF92EF92FF920F931F93CF93DF93BC
:10281000EC015B014A016901E881F9810284F385D9
:10282000E02D099595012C0D3D1D21503109E881C0
:10283000F9810488F589E02D78018401A401B501AE
:10284000CE010995E881F9810688F789E02DCE014E
:10285000DF91CF911F910F91FF90EF90DF90CF907C
:10286000BF90AF909F908F9009948F929F92AF925C
:10287000BF92CF92DF92EF92FF920F931F93CF936D
:10288000DF93EC015B014A0169017801E881F9817C
:102890000284F385E02D0995C80CD91C86010150EE
:1028A0001109E881F9810488F589E02D9501A401D9
:1028B000B501CE010995E881F9810688F789E02DF7
:1028C000CE01DF91CF911F910F91FF90EF90DF909C
:1028D000CF90BF90AF909F908F900994EF92FF920E
:1028E0000F931F93DC01ED91FC9100A0F1A1E02D6D
:1028F00009951F910F91FF90EF9008950F931F93EB
:10290000DC01ED91FC91068CF78DE02D09951F916E
:102910000F9108950F931F93DC01ED91FC91048CAE
:10292000F58DE02D09951F910F910895DC01ED9132
:10293000FC910084F185E02D09943F924F925F92C3
:102940006F927F928F929F92AF92BF92CF92DF92BF
:10295000EF92FF920F931F93CF93DF935C017B0164
:102960004A016901390187E0680E711C93E0759492
:1029700067949A95E1F72B01400E511E10E000E09C
:10298000312CD0E0C0E0CE0187709927330C892B21
:1029900059F4FE0183E0F595E7958A95E1F7E00F9C
:1029A000F11FE80DF91D349037FE0AC021E030E038
:1029B000A701B5016C0F7D1F82E294E00E9496147E
:1029C0002196CC16DD06F9F68FEFE81AF80A060D07
:1029D000171DE414F504A9F6DF91CF911F910F9113
:1029E000FF90EF90DF90CF90BF90AF909F908F902F
:1029F0007F906F905F904F903F9008952F923F92FD
:102A00004F925F926F927F928F929F92AF92BF92FE
:102A1000CF92DF92EF92FF920F931F93CF93DF93AA
:102A200000D000D000D0CDB7DEB73C016A013E83B4
:102A30002D83FC82EB825801A41AB50AB7FE03C0AD
:102A4000B194A194B1088D809E80861A970A97FE52
:102A500003C09194819491088A149B045CF0902F98
:102A6000812F0D811E819D838E839C2D8D2D6B0169
:102A7000692F782F0C151D055CF09D818E817E835A
:102A80006D83692F782F902F812F8601C92ED82E24
:102A90001601201A310A2B012D813E81421A530A58
:102AA00057FE03C0519441945108710137FE03C091
:102AB0003FEFE31AF30AF594E7948D819E81861720
:102AC00097075CF5A1E0B0E0BA83A983C016D106F0
:102AD0004CF1D301ED91FC910484F585E02D2B811F
:102AE0003C81A8016D817E818A149B041CF04D817C
:102AF0005E81B801C3010995E418F508F7FE0AC024
:102B00002D813E8189819A81280F391F3E832D8333
:102B1000E20CF31C0F5F1F4FD9CF2FEF3FEF3A832B
:102B20002983D4CF26960FB6F894DEBF0FBECDBF53
:102B3000DF91CF911F910F91FF90EF90DF90CF9099
:102B4000BF90AF909F908F907F906F905F904F90CD
:102B50003F902F900895089590E080E008952FB75A
:102B6000F8948091A1029091A202A091A302B09149
:102B7000A4022FBF8093840290938502A0938602C3
:102B8000B093870210928A0210928B0210928C02EC
:102B900010928D0210929302109292028FEF9FEF8B
:102BA000DC0180938E0290938F02A0939002B093E9
:102BB00091021092890210928802089520912804AF
:102BC00030912904C901079697FD079623E0959552
:102BD00087952A95E1F72091260430912704829F5A
:102BE000A001839F500D929F500D112470E060E072
:102BF00080914104909142040C94CC2685ED809301
:102C0000BC008091EC029091ED02A091EE02B09197
:102C1000EF020796A11DB11D23E0B695A7959795E4
:102C200087952A95D1F72091BC0024FD03C010920E
:102C3000390308954091EC025091ED026091EE024B
:102C40007091EF02452B462B472B69F30097A105A6
:102C5000B10541F025E32A95F1F700000197A1099C
:102C6000B109E1CF8091EB020C94EB070E94C726DB
:102C7000FB0101900020E9F73197AF01461B570B8C
:102C8000DC01ED91FC910280F381E02D09948F929B
:102C90009F92AF92BF92EF92FF920F931F93CF93A9
:102CA000DF93CDB7DEB7A1970FB6F894DEBF0FBEA6
:102CB000CDBF7C01FA01CB0119A2223008F42AE031
:102CC0008E010F5D1F4F822E912CB12CA12CBF01C4
:102CD000A50194010E943723F901CA016A300CF55D
:102CE000605DD8016E938D01232B242B252B79F762
:102CF00090E080E0109721F0BD01C7010E943816D6
:102D0000A1960FB6F894DEBF0FBECDBFDF91CF9175
:102D10001F910F91FF90EF90BF90AF909F908F9079
:102D20000895695CDECFCF92DF92EF92FF92CF934E
:102D3000DF936C01990FEE08FF08F7FE1BC06DE2F0
:102D400082E294E00E94F111EC0144275527BA0178
:102D50004C195D096E097F092AE082E294E00E9425
:102D600047168C0F9D1FDF91CF91FF90EF90DF9062
:102D7000CF9008952AE0B701A60182E294E0DF91A6
:102D8000CF91FF90EF90DF90CF900C9447162F9249
:102D90003F924F925F926F927F928F929F92AF92EB
:102DA000BF92CF92DF92EF92FF921F93CF93DF9368
:102DB000EC016A017B01722EAB019601CB01B601D9
:102DC0000E949D2566E471E0811126C046015701ED
:102DD000E894B7F82FEF3FEF4FE75FE7C501B40185
:102DE0000E949D2581110CC02FEF3FEF4FE75FE759
:102DF000C501B4010E94CC236AE471E0181664F0A6
:102E00002FEF3FEF4FE75FE4C701B6010E942B258C
:102E10001816B4F46EE471E0CE01DF91CF911F91EA
:102E2000FF90EF90DF90CF90BF90AF909F908F90EA
:102E30007F906F905F904F903F902F900C9438163A
:102E40002FEF3FEF4FE75FECC701B6010E94CC23A5
:102E500087FDE0CF20E030E0A901C701B6010E9464
:102E6000CC23312C212C87FF0DC0E881F981019002
:102E7000F081E02D6DE2CE0109951C01F7FAF09486
:102E8000F7F8F09410E060E070E080E09FE37116E6
:102E900041F020E030E040E251E40E94D1231F5F86
:102EA000F6CFA70196010E9460232B013C010E94EE
:102EB0004A244B015C012AE0BC01A401CE010E941E
:102EC00047167C01E20CF31C1123E1F1C501B401AA
:102ED0000E9479249B01AC01C301B2010E945F23CF
:102EE0004B015C01E881F9810190F081E02D6EE2F7
:102EF000CE010995E80EF91E115020F120E030E0D6
:102F000040E251E4C501B4010E9430252B013C018F
:102F10000E944A244B01B12CA12C2AE0B501A40146
:102F2000CE010E944716E80EF91EC501B4010E94A9
:102F300079249B01AC01C301B2010E945F234B01C4
:102F40005C01DACFC701DF91CF911F91FF90EF9025
:102F5000DF90CF90BF90AF909F908F907F906F90B9
:102F60005F904F903F902F9008951F920F920FB651
:102F70000F9211242F933F934F935F936F937F93FF
:102F80008F939F93AF93BF93EF93FF938091B9007B
:102F9000887F803609F44AC0F0F5883209F4A7C06A
:102FA00018F5803109F49BC0B8F4882309F4F9C0FE
:102FB000883009F494C0FF91EF91BF91AF919F9138
:102FC0008F917F916F915F914F913F912F910F90D2
:102FD0000FBE0F901F901895883109F488C0803279
:102FE00051F78093380314C0803409F49DC040F435
:102FF0008033B9F38833F9F68093380385ECB0C099
:10300000803509F485C0883509F496C0883499F66E
:103010000E94FE15D0CF883909F48CC038F5883766
:1030200029F050F4883611F0803729F683E0809338
:1030300039031092370357C0883809F47BC08039B0
:1030400019F0803809F0B7CF80913703803208F04B
:1030500071C0E091370381E08E0F80933703809138
:10306000BB00F0E0E95EFC4F80833DC0803B39F05F
:10307000E0F4803A09F479C0883A09F09CCF84E002
:10308000809339031092140310921303E0911103FB
:10309000F091120309958091130381110FC081E013
:1030A000809313031092F10209C0803C09F4A6CF6B
:1030B000883C09F4A3CF883B09F07DCFE09114034D
:1030C00081E08E0F80931403F0E0EF50FD4F80817C
:1030D0008093BB00909114038091130329C08091C9
:1030E0005E038093BB0085EC8093BC0064CF90911D
:1030F0005D0380915C03981758F5E0915D0381E0D2
:103100008E0F80935D03F0E0E45CFC4F8081E9CF9B
:10311000E0915D0381E08E0F80935D038091BB00A1
:10312000F0E0E45CFC4F808390915D0380915C0350
:103130009817C8F285E8D8CFE0915D0381E08E0F43
:1031400080935D038091BB00F0E0E45CFC4F8083E2
:1031500080913B0381115CCF81E080933A0384EA44
:103160008093BC001092390326CF85EC8093BC007D
:103170001092390380913703803230F4E0913703A5
:10318000F0E0E95EFC4F10826091370370E0E0915F
:103190001503F091160387E193E009951092370328
:1031A0000ACF1092380334CF1F920F920FB60F92AE
:1031B00011242F933F938F939F93AF93BF9380914D
:1031C000A1029091A202A091A302B091A402309119
:1031D000A00223E0230F2D3758F50196A11DB11D44
:1031E0002093A0028093A1029093A202A093A30235
:1031F000B093A4028091A5029091A602A091A7028B
:10320000B091A8020196A11DB11D8093A5029093D3
:10321000A602A093A702B093A802BF91AF919F917D
:103220008F913F912F910F900FBE0F901F90189587
:1032300026E8230F0296A11DB11DD2CF1F920F9237
:103240000FB60F9211242F933F934F935F936F9379
:103250007F938F939F93AF93BF93EF93FF938BE6EF
:1032600093E00E94280AFF91EF91BF91AF919F9147
:103270008F917F916F915F914F913F912F910F901F
:103280000FBE0F901F9018951F920F920FB60F92BE
:1032900011242F938F939F93EF93FF93E0917B03E0
:1032A000F0917C038081E0918103F091820382FDA3
:1032B0001BC09081809184038F5F8F732091850361
:1032C000821741F0E0918403F0E0E559FC4F958FBF
:1032D00080938403FF91EF919F918F912F910F9095
:1032E0000FBE0F901F9018958081F4CFEF92FF9240
:1032F0001F93CF93DF93EBE6F3E01382128288EE05
:1033000093E0A0E0B0E084839583A683B7838CE04C
:1033100091E09183808385EC90E09587848784ECAD
:1033200090E09787868780EC90E0918B808B81EC92
:1033300090E0938B828B82EC90E0958B848B86EC73
:1033400090E0978B868B118E128E138E148EE2E294
:10335000F4E01382128220E830E03583248380E495
:1033600090E0978386833187208793878287168AA8
:10337000158614861786168611E0158B148BEE249D
:10338000EA94FE2CF38AE28AF18AE08A178B108E87
:10339000128E118E8EE191E091838083148E138EB4
:1033A000168E158E10A2178E89E084A38AE085A35D
:1033B0008BE086A38CE087A38DE080A780E586AFB5
:1033C00017AE60E086E00E940C08E6E3FBE0E491C3
:1033D000A4E1B4E0EC93E2E2FBE0E491F0E0EE0F74
:1033E000FF1FEE5EF44F8591949112969C938E93FD
:1033F00011971B961C921B971D961C921D971C964D
:103400001C921C971A961C921A9719961C9219973F
:1034100018961C92189717961C92179716961C923E
:10342000169715961C92159714961C92149713963E
:103430001C92C8E0D4E085E0888387E0898388E037
:103440008A8384E68B83198618871C821D821E82DC
:103450001F82FB86EA8661E085E00E940C0861E03D
:1034600089810E940C0861E08A81DF91CF911F91D0
:10347000FF90EF900C940C08789484B5826084BD22
:1034800084B5816084BD85B5826085BD85B5816068
:1034900085BD80916E00816080936E0010928100E6
:1034A00080918100826080938100809181008160A1
:1034B0008093810080918000816080938000809162
:1034C000B10084608093B1008091B00081608093EE
:1034D000B00080917A00846080937A0080917A00B5
:1034E000826080937A0080917A00816080937A0074
:1034F00080917A00806880937A001092C100E091F8
:103500007B03F0917C0382E08083E0917703F0916C
:1035100078031082E0917903F0917A038FEC808335
:1035200010928303E0917F03F091800386E0808313
:10353000E0917D03F0917E03808180618083E09142
:103540007D03F0917E03808188608083E0917D031C
:10355000F0917E03808180688083E0917D03F0910B
:103560007E0380818F7D808361E08EE00E940C0865
:1035700062E080E10E940C0862E081E10E940C0898
:1035800062E082E10E940C0862E083E10E940C0884
:103590008091410490914204892B71F52091280477
:1035A00030912904C901079697FD0796B3E09595D8
:1035B0008795BA95E1F72091260430912704AC0154
:1035C000429FC001439F900D529F900D11240E9475
:1035D000A2259093420480934104892B69F46AE206
:1035E0007AE08BE693E00E94860962E571E08BE663
:1035F00093E00E943816FFCF0E94DE152091280428
:10360000309129048091260490912704B901213238
:1036100031050CF4CCC16054710977FF02C06F5FB3
:103620007F4F759567958255910997FD019600E446
:1036300010E022E530E04AE657E0959587950E9434
:103640009D1482E08093440480913F049091400453
:10365000892B09F4C1C18091280490912904809795
:1036600009F0B8C18CE3809343041092EA021092EF
:10367000E90210926803109267030E94CD0786EC5E
:1036800096E0909312038093110387EC96E0909359
:1036900016038093150380914A0487FD1EC061E0E4
:1036A0000E940C0861E080914A040E949F0761E03B
:1036B00070E080E090E00E94540960E080914A044C
:1036C0000E949F076AE070E080E090E00E94540949
:1036D00061E080914A040E949F0780913F0490918D
:1036E0004004892B09F437C22091570430915804C3
:1036F0004091590450915A0460E074E284EF90E0E4
:103700000E943723205131094109510956954795A7
:10371000379527952093B80064E086E895E00E94ED
:10372000150D60912804615082E294E00E94CA0D58
:1037300064E082E895E00E94150D8091440460E108
:10374000813009F064E182E294E00E94CA0D64E0F5
:103750008EE795E00E94150D8FE880935F048091BD
:103760002604909127048038910509F00DC28091BC
:103770002804909129048034910509F015C28091A4
:103780004404813009F0FEC18FE980935F04C2E1F7
:103790006AED82E294E00E94CA0D6C2F82E294E00E
:1037A0000E94CA0D61E882E294E00E94CA0D609115
:1037B0005F0482E294E00E94CA0D69ED82E294E027
:1037C0000E94CA0D8091440462E2813009F061EFE9
:1037D00082E294E00E94CA0D66E088E795E00E94CC
:1037E000150D80913F0490914004892B09F4E0C1AC
:1037F00020915B0430915C0440915D0450915E0423
:1038000060E074E284EF90E00E9437232051310998
:103810004109510956954795379527952093B8004A
:103820000E94DE1580912104811104C00E9465066A
:103830008111C8C110921F0410922104109220041B
:1038400062E571E08BE693E00E94381610921F0447
:10385000109221041092200410921E0410921D0454
:1038600010921C0410921B0410921A041092190456
:1038700010921804109217046AEF70E080E090E054
:103880000E94540982E090E090939F0280939E02F0
:1038900081E080933604809337048EE190E090932A
:1038A00001018093000110929B0210929A028AE01B
:1038B00090E090939902809398028FB7F89440918A
:1038C000A1025091A2026091A3027091A4028FBF45
:1038D00042E0642E712CC8E0D0E050E1C52ED12C1E
:1038E00068E1A62EB12C70E2872E912C0091670121
:1038F0001091680180E10E9476070817190709F006
:10390000BFC10091690110916A0181E10E947607AF
:103910000817190709F0E0C100916B0110916C01C3
:1039200082E10E9476070817190709F002C2009188
:103930006D0110916E0183E10E9476070817190747
:1039400009F058C270929F0260929E020E94650622
:103950000E94520661E084E40E9423060E946506EC
:103960000E94520660E08EEB0E94230610927B01BB
:1039700050907B01F8E0F51508F4BDC2052D10E06C
:1039800038E0E32EF12C412C332433940E94CE05F1
:1039900081114328330C21E0E21AF108B9F7F8014C
:1039A000E159FE4F4082539450927B01E1CF605227
:1039B000710977FF02C06F5F7F4F759567958357D9
:1039C000910997FD019600E210E023E730E04AE814
:1039D00055E033CE8DE347CE61E0809148040E94EC
:1039E0000C0861E0809149040E940C088091480411
:1039F000082E000C990BFC01E45EF44FE491F0E01A
:103A0000EE0FFF1FE151F54F259134913093500493
:103A100020934F04FC01E05DF44FE491E0935504E2
:103A200080914904082E000C990BFC01E45EF44FD0
:103A3000E491F0E0EE0FFF1FE151F54FA591B49135
:103A4000B0935204A0935104FC01E05DF44FE49163
:103A5000E09356048C91E82BEC9380913D04909177
:103A60003E04892B09F434C0CFB7F89480916601E5
:103A7000811127C0E6E2FBE08491EAE3FBE0949148
:103A8000E82FF0E0EE0FFF1FEB51F54FA591B49139
:103A9000EC91E92321F461E08AE00E949F0761E054
:103AA0008AE00E940C088CB580618CBD8CB5806466
:103AB0008CBD61E08DE00E940C0861E08BE00E940B
:103AC0000C08809166018F5F80936601CFBFE3CDC4
:103AD00061E0809146040E940C0861E080914704F7
:103AE0000E940C0880914604082E000C990BFC01E2
:103AF000E45EF44FE491F0E0EE0FFF1FE151F54F6B
:103B00002591349130934C0420934B04FC01E05DEB
:103B1000F44FE491E093530480914704082E000C85
:103B2000990BFC01E45EF44FE491F0E0EE0FFF1F0F
:103B3000E151F54FA591B491B0934E04A0934D047B
:103B4000FC01E05DF44FE491E09354048C91E09526
:103B5000E823EC93A0CD80913D0490913E04892B05
:103B600031F080916004909161040E942C0EE091EC
:103B70005104F091520490818091560480958923DC
:103B80008083CACD8FEC01CE8036910569F4809197
:103B9000280490912904409739F48091440481309D
:103BA00029F480E180935F04C2E0F2CD8FEAFACF7E
:103BB000E0915104F0915204808190915604892B38
:103BC00080832ECE60E080EF0E942306D1E000E0EB
:103BD000F12CC1E00E94CE05182F0E94CE051130B5
:103BE000E1F48130C9F5C13408F424CEF0921F0409
:103BF000F11003C081E08093210480911704882391
:103C000009F418CEA7E1B4E0EFE5F3E08D918193DC
:103C100053E0E736F507D1F735CEE02FF0E0181383
:103C200011C080911F04C817A8F4DF01AC5EBB4F20
:103C300013968C918D2381F410E0C93010F4C09359
:103C40002004FC2EEC5EFB4F83819D2F90958923F1
:103C500083830AC08C13F0CFE02FF0E0EC5EFB4FC3
:103C600083818D2B838311E0812F0E94F305CF5F29
:103C7000DD0F11F40F5FD1E0083008F4ABCFB3CF04
:103C800065E070E080E090E00E94540980E10E94CD
:103C900076070817190709F434CE80E10E947607E9
:103CA0009093680180936701892B09F02ACE809157
:103CB0009E0290919F028230910509F0F0C0209100
:103CC0009C0230919D022150310937FD2DC0309367
:103CD0009D0220939C0236CE65E070E080E090E08B
:103CE0000E94540981E10E9476070817190709F418
:103CF00013CE81E10E94760790936A018093690157
:103D0000892B09F009CE80919E0290919F0282300A
:103D1000910509F0CEC080919C0290919D02019680
:103D2000833091050CF0C0C090939D0280939C025B
:103D300009CE65E070E080E090E00E94540982E1E5
:103D40000E9476070817190709F4F1CD82E10E9455
:103D5000760790936C0180936B01892B09F0E7CD76
:103D600080919E0290919F02029709F05AC0809123
:103D70009C0290919D020197D1F480910001909155
:103D800001018F3191059CF001979093010180937F
:103D90000001F12CE12C06E110E02FE730E048E2D1
:103DA00050E061E070E082E294E00E94B7138091FD
:103DB0009C0290919D02029709F0C4CD80919A02D5
:103DC00090919B02181619062CF40A9790939B0267
:103DD00080939A020E94AF15809198029091990267
:103DE000181619060CF0AECD0197909399028093A6
:103DF0009802A8CD65E070E080E090E00E94540950
:103E000083E10E9476070817190709F49BCD83E127
:103E10000E94760790936E0180936D01892B09F0C3
:103E200091CD80919E0290919F02029709F08ACDD8
:103E300080919C0290919D02892BD1F48091000188
:103E400090910101823391059CF4019690930101B8
:103E500080930001F12CE12C06E110E02FE730E027
:103E600048E250E061E070E082E294E00E94B71323
:103E700080919C0290919D028130910579F580910D
:103E80009A0290919B02883EE3E09E072CF40A96EA
:103E900090939B0280939A020E94AF1553CD81307C
:103EA000910509F030CF0BCF10929D0210929C0229
:103EB00049CD019709F054CF80919C0290919D02C9
:103EC0000196823091052CF490939D0280939C0280
:103ED00047CF10929D0210929C0242CF029709F0A8
:103EE00031CD8091980290919902843191050CF026
:103EF00029CD01967ACF60916F0170917001072EE4
:103F0000000C880B990B0E947B2420E030E040E8F5
:103F10005DE30E943025AB01BC01409394025093B5
:103F20009502609396027093970222E08BE693E0ED
:103F30000E94C71662E571E08BE693E00E94381696
:103F400000919E0210919F0280917C0190917D01D1
:103F50000817190711F00E94DE150130110509F04C
:103F60005CC180919C0290919D02019709F04CC127
:103F700010923304109232041093350400933404E9
:103F800010922F0410922E041092310410923004DB
:103F900064E67AE082E294E00E94860968E57AE0CD
:103FA00082E294E00E94860981E090E090937D0196
:103FB00080937C0180919E0290919F0281309105B7
:103FC00051F510910B0420919C0230919D022230FA
:103FD000310509F059C110923304109232049093C4
:103FE00035048093340410922F0410922E04D09341
:103FF0003104C09330046DE67AE082E294E00E94DE
:104000008609812F90E00E9493166BE67AE082E2A7
:1040100094E00E94860980919E0290919F028130D7
:10402000910569F520909402309095024090960297
:104030005090970220919C0230919D0223303105CF
:1040400009F02BC11092330410923204909335047E
:104050008093340410922F0410922E04D0923104D5
:10406000C09230046CE77AE082E294E00E94860914
:1040700022E0B201A10182E294E00E94C716809181
:104080009E0290919F028130910511F520919C0232
:1040900030919D022430310509F008C1109233049B
:1040A00010923204909335048093340410922F04BC
:1040B00010922E04B0923104A09230046DE87AE0A0
:1040C00082E294E00E94860990E080E00E949316CC
:1040D00080919E0290919F028130910539F5209147
:1040E0009C0230919D022530310509F0E8C0109204
:1040F0003304109232049093350480933404109268
:104100002F0410922E0490923104809230046CE9B6
:104110007AE082E294E00E94860922E040E050E0EA
:1041200060E070E482E294E00E94C71680919E02F3
:1041300090919F02029709F0DEC000917E021091DB
:104140007F02C801880F991FAC0142585E4F7A0167
:1041500020E030E046E952E46091940270919502CB
:1041600080919602909197020E94D12320E030E046
:1041700040EC51E40E9430250E94432484E490E006
:10418000861B970BF701918380830F3711050CF085
:104190009FC00F5F1F4F10937F0200937E02EE249B
:1041A000E394F12C0FE310E030E020E040E350E036
:1041B00070E060E082E294E00E9422132FE730E09A
:1041C0004FE350E070E060E082E294E00E9422134E
:1041D0009EE7E92E91E0F92E10E000E080917E024A
:1041E00090917F02081719070CF085C0F7014191E3
:1041F00051917F0121E030E0B80182E294E00E9419
:104200005E0C0F5F1F4FEACF10933304009332040C
:104210001092350410923404B3CE0230110509F027
:10422000C9CE80919C0290919D028130910509F543
:104230001092330410923204909335048093340426
:1042400010922F0410922E04109231041092300418
:1042500061E57AE082E294E00E94860964E47AE013
:1042600082E294E00E94860970927D0160927C0156
:10427000A1CE81E090E090933304809332041092B9
:10428000350410923404DCCF9093330480933204CD
:104290001092350410923404A6CE90933304809388
:1042A00032041092350410923404D4CE9093330427
:1042B000809332041092350410923404F7CE909318
:1042C000330480933204109235041092340417CFD3
:1042D00010927F0210927E02F12CE12C0EE010E091
:1042E0002FE730E040E350E061E070E082E294E0EC
:1042F0000E94B71354CF80919E0290919F02029723
:1043000009F042C0209094023090950240909602AD
:104310005090970280919C0290919D02892B09F008
:1043200076C1109233041092320481E090E09093B1
:1043300035048093340410922F0410922E04D093ED
:104340003104C09330040E942F0E65E571E082E2D3
:1043500094E00E94381622E0B201A10182E294E0CA
:104360000E94C7166CE571E082E294E00E94381664
:1043700080910001909101010E94931660E671E026
:1043800082E294E00E94381680919E0290919F02F2
:10439000029709F064C080919C0290919D02813047
:1043A000910509F03FC110923304109232049093AA
:1043B0003504809334042FB7F8948091A102909132
:1043C000A202A091A302B091A4022FBF4091840247
:1043D000509185026091860270918702841B950B33
:1043E000A60BB70B8093800290938102A093820268
:1043F000B093830210922F0410922E04D0923104B5
:10440000C092300467EB7AE082E294E00E94860971
:10441000609180027091810280918202909183026A
:104420000E94792420E030E04AE754E40E94D1233E
:104430000E944324CB010E94931663EB7AE082E250
:1044400094E00E94860980919A0290919B020E94BA
:1044500093166DEA7AE082E294E00E9486098091E8
:104460009E0290919F02029759F580919C02909133
:104470009D02029709F0E1C01092330410923204B9
:1044800081E090E0909335048093340410922F04DF
:1044900010922E04B0923104A092300463EC7AE0C2
:1044A00082E294E00E94860980919802909199029C
:1044B0000E9493166DEB7AE082E294E00E948609F6
:1044C00080919E0290919F02029709F041C081E085
:1044D00090E090933304809332041092350410924C
:1044E000340410922F0410922E0490923104809282
:1044F00030046DEC7AE082E294E00E9486096091DB
:104500008A0270918B0280918C0290918D020E94A0
:10451000792420E030E04AE754E40E94D123AB0143
:10452000BC0122E082E294E00E94C7166AEC7AE0C5
:1045300082E294E00E94860980918802909189022B
:104540000E94931666EC7AE082E294E00E9486096B
:1045500080919E0290919F02029709F043C081E0F2
:1045600090E09093330480933204109235041092BB
:10457000340410922F0410922E0488E290E090935D
:104580003104809330046BED7AE082E294E00E9483
:10459000860980919202909193020E94931669ED90
:1045A0007AE082E294E00E94860960918E02709126
:1045B0008F0280919002909191020E947B2420E0D2
:1045C00030E04AE754E40E94D123AB01BC0122E071
:1045D00082E294E00E94C71666ED7AE082E294E0FF
:1045E0000E9486090E942F0E64EF71E080E090E047
:1045F0000E94540920E030E0232B09F477C90E947F
:10460000140A882309F472C90E9400006FC981E06E
:1046100090E090933304809332041092350410920A
:10462000340489CE81E090E0909333048093320487
:104630001092350410923404BECE81E090E0909345
:1046400033048093320410923504109234041ECF48
:104650008EE191E0909323048093220480914104A1
:1046600090914204009711F00C943E260895A1E227
:104670001A2EAA1BBB1BFD010DC0AA1FBB1FEE1FDC
:10468000FF1FA217B307E407F50720F0A21BB30B27
:10469000E40BF50B661F771F881F991F1A9469F7A3
:1046A00060957095809590959B01AC01BD01CF01FF
:1046B0000895EE0FFF1F0590F491E02D09945058D6
:1046C000BB27AA270E9477230C94F1240E94E3249D
:1046D00038F00E94EA2420F039F49F3F19F426F4C0
:1046E0000C94E0240EF4E095E7FB0C94DA24E92F17
:1046F0000E94022558F3BA176207730784079507CB
:1047000020F079F4A6F50C9424250EF4E0950B2EF8
:10471000BA2FA02D0B01B90190010C01CA01A00113
:104720001124FF27591B99F0593F50F4503E68F16E
:104730001A16F040A22F232F342F4427585FF3CFAF
:10474000469537952795A795F0405395C9F77EF480
:104750001F16BA0B620B730B840BBAF09150A1F0C9
:10476000FF0FBB1F661F771F881FC2F70EC0BA0F4F
:10477000621F731F841F48F4879577956795B795D7
:10478000F7959E3F08F0B0CF9395880F08F09927D2
:10479000EE0F9795879508950E94B62408F481E05E
:1047A00008950E94E5230C94F1240E94EA2458F015
:1047B0000E94E32440F029F45F3F29F00C94DA24AE
:1047C00051110C9425250C94E0240E94022568F3D5
:1047D0009923B1F3552391F3951B550BBB27AA27BA
:1047E00062177307840738F09F5F5F4F220F331FF4
:1047F000441FAA1FA9F335D00E2E3AF0E0E832D0BC
:1048000091505040E695001CCAF72BD0FE2F29D0BE
:10481000660F771F881FBB1F261737074807AB0790
:10482000B0E809F0BB0B802DBF01FF2793585F4F05
:104830003AF09E3F510578F00C94DA240C9425252B
:104840005F3FE4F3983ED4F3869577956795B795E7
:10485000F7959F5FC9F7880F911D9695879597F9F2
:104860000895E1E0660F771F881FBB1F621773076B
:104870008407BA0720F0621B730B840BBA0BEE1F80
:1048800088F7E09508950E944A246894B1110C9429
:10489000252508950E940A2588F09F5798F0B92F82
:1048A0009927B751B0F0E1F0660F771F881F991F65
:1048B0001AF0BA95C9F714C0B13091F00E942425BE
:1048C000B1E008950C942425672F782F8827B85FCE
:1048D00039F0B93FCCF3869577956795B395D9F7BD
:1048E0003EF490958095709561957F4F8F4F9F4FC7
:1048F0000895E89409C097FB3EF4909580957095D3
:1049000061957F4F8F4F9F4F9923A9F0F92F96E91B
:10491000BB279395F695879577956795B795F11190
:10492000F8CFFAF4BB0F11F460FF1BC06F5F7F4F2D
:104930008F4F9F4F16C0882311F096E911C077233F
:1049400021F09EE8872F762F05C0662371F096E848
:10495000862F70E060E02AF09A95660F771F881F17
:10496000DAF7880F9695879597F90895990F0008BB
:10497000550FAA0BE0E8FEEF16161706E807F90731
:10498000C0F012161306E407F50798F0621B730BCC
:10499000840B950B39F40A2661F0232B242B252B4D
:1049A00021F408950A2609F4A140A6958FEF811DF0
:1049B000811D089597F99F6780E870E060E0089591
:1049C0009FEF80EC089500240A9416161706180627
:1049D0000906089500240A94121613061406050603
:1049E0000895092E0394000C11F4882352F0BB0F94
:1049F00040F4BF2B11F460FF04C06F5F7F4F8F4FF7
:104A00009F4F089557FD9058440F551F59F05F3F31
:104A100071F04795880F97FB991F61F09F3F79F0E0
:104A200087950895121613061406551FF2CF469562
:104A3000F1DF08C0161617061806991FF1CF8695E4
:104A40007105610508940895E894BB2766277727C8
:104A5000CB0197F908950E94B62408F48FEF0895CA
:104A60000E9443250C94F1240E94E32438F00E9414
:104A7000EA2420F0952311F00C94DA240C94E0241D
:104A800011240C9425250E94022570F3959FC1F3F3
:104A9000950F50E0551F629FF001729FBB27F00DEC
:104AA000B11D639FAA27F00DB11DAA1F649F662741
:104AB000B00DA11D661F829F2227B00DA11D621F90
:104AC000739FB00DA11D621F839FA00D611D221F4A
:104AD000749F3327A00D611D231F849F600D211D2E
:104AE000822F762F6A2F11249F5750409AF0F1F0B1
:104AF00088234AF0EE0FFF1FBB1F661F771F881F1A
:104B000091505040A9F79E3F510580F00C94DA2453
:104B10000C9425255F3FE4F3983ED4F38695779572
:104B20006795B795F795E7959F5FC1F7FE2B880FBF
:104B3000911D9695879597F908950E94B624880B44
:104B4000990B08950F931F93CF93DF9382309105B4
:104B500010F482E090E0E0916404F091650430E0AC
:104B600020E0B0E0A0E0309799F42115310509F478
:104B70004AC0281B390B24303105D8F58A819B8126
:104B80006115710589F1FB0193838283FE0111C0D8
:104B9000408151810281138148175907E0F048177D
:104BA000590799F4109761F012960C931297139687
:104BB0001C933296CF01DF91CF911F910F910895F1
:104BC0000093640410936504F4CF2115310551F06E
:104BD0004217530738F0A901DB019A01BD01DF013B
:104BE000F801C1CFEF01F9CF90936504809364047D
:104BF000CDCFFE01E20FF31F819391932250310933
:104C000039832883D7CF2091620430916304232B0A
:104C100041F4209104013091050130936304209305
:104C2000620420910201309103012115310541F404
:104C30002DB73EB74091060150910701241B350B5B
:104C4000E0916204F0916304E217F307A0F42E1BD5
:104C50003F0B2817390778F0AC014E5F5F4F2417E0
:104C6000350748F04E0F5F1F509363044093620472
:104C7000819391939FCFF0E0E0E09CCFCF93DF93BF
:104C80000097E9F0FC01329713821282A09164042C
:104C9000B0916504ED0130E020E01097A1F420818F
:104CA0003181820F931F2091620430916304281791
:104CB000390709F061C0F0936304E0936204DF9167
:104CC000CF910895EA01CE17DF07E8F54A815B81AD
:104CD0009E0141155105B1F7E901FB83EA83499132
:104CE0005991C40FD51FEC17FD0761F480819181A4
:104CF0000296840F951FE9019983888382819381AD
:104D00009B838A83F0E0E0E012968D919C9113974B
:104D10000097B9F52D913C911197CD010296820F24
:104D2000931F20916204309163042817390739F6E4
:104D3000309751F51092650410926404B0936304A7
:104D4000A0936204BCCFD383C28340815181840F7E
:104D5000951FC817D90761F44E5F5F4F888199810D
:104D6000480F591F518340838A819B81938382839B
:104D70002115310509F0B0CFF0936504E093640488
:104D80009ECFFD01DC01C0CF13821282D7CF81E01C
:104D900090E0F8940C94D326DC0101C06D9341504F
:104DA0005040E0F7089515E0C3EAD5E004C0FE01E5
:104DB0000E9459232196C43AD107C9F7F894FFCF2E
:104DC0002D00000066048000000000004A0AAA09C5
:104DD000D709970A080AE609FA0900000000F1114C
:104DE000AA09AC15AB155E0C9E0696146E148A14B7
:104DF0007E14FE149E06B70F600FCE0B170CB71370
:104E00009A132213C3126E616E00696E66006F768C
:104E100066000D0A0054656D703A2000202F2000B6
:064E2000204320202000C9
:00000001FF
